{
	"iflelse.sol": {
		"elifs": {
			"abi": [
				{
					"inputs": [
						{
							"internalType": "int256",
							"name": "x",
							"type": "int256"
						}
					],
					"name": "condi",
					"outputs": [
						{
							"internalType": "int256",
							"name": "",
							"type": "int256"
						}
					],
					"stateMutability": "pure",
					"type": "function"
				}
			],
			"devdoc": {
				"kind": "dev",
				"methods": {},
				"version": 1
			},
			"evm": {
				"assembly": "    /* \"iflelse.sol\":60:453  contract elifs{... */\n  mstore(0x40, 0x80)\n  callvalue\n  dup1\n  iszero\n  tag_1\n  jumpi\n  0x00\n  dup1\n  revert\ntag_1:\n  pop\n  dataSize(sub_0)\n  dup1\n  dataOffset(sub_0)\n  0x00\n  codecopy\n  0x00\n  return\nstop\n\nsub_0: assembly {\n        /* \"iflelse.sol\":60:453  contract elifs{... */\n      mstore(0x40, 0x80)\n      callvalue\n      dup1\n      iszero\n      tag_1\n      jumpi\n      0x00\n      dup1\n      revert\n    tag_1:\n      pop\n      jumpi(tag_2, lt(calldatasize, 0x04))\n      shr(0xe0, calldataload(0x00))\n      dup1\n      0x76b6f6dd\n      eq\n      tag_3\n      jumpi\n    tag_2:\n      0x00\n      dup1\n      revert\n        /* \"iflelse.sol\":83:449  function condi(int x) public pure returns(int){... */\n    tag_3:\n      tag_4\n      0x04\n      dup1\n      calldatasize\n      sub\n      dup2\n      add\n      swap1\n      tag_5\n      swap2\n      swap1\n      tag_6\n      jump\t// in\n    tag_5:\n      tag_7\n      jump\t// in\n    tag_4:\n      mload(0x40)\n      tag_8\n      swap2\n      swap1\n      tag_9\n      jump\t// in\n    tag_8:\n      mload(0x40)\n      dup1\n      swap2\n      sub\n      swap1\n      return\n    tag_7:\n        /* \"iflelse.sol\":125:128  int */\n      0x00\n        /* \"iflelse.sol\":147:148  0 */\n      dup1\n        /* \"iflelse.sol\":143:144  x */\n      dup3\n        /* \"iflelse.sol\":143:148  x > 0 */\n      sgt\n        /* \"iflelse.sol\":143:157  x > 0 && x <10 */\n      dup1\n      iszero\n      tag_11\n      jumpi\n      pop\n        /* \"iflelse.sol\":155:157  10 */\n      0x0a\n        /* \"iflelse.sol\":152:153  x */\n      dup3\n        /* \"iflelse.sol\":152:157  x <10 */\n      slt\n        /* \"iflelse.sol\":143:157  x > 0 && x <10 */\n    tag_11:\n        /* \"iflelse.sol\":140:442  if(x > 0 && x <10){... */\n      iszero\n      tag_12\n      jumpi\n        /* \"iflelse.sol\":180:181  1 */\n      0x01\n        /* \"iflelse.sol\":173:181  return 1 */\n      swap1\n      pop\n      jump(tag_10)\n        /* \"iflelse.sol\":140:442  if(x > 0 && x <10){... */\n    tag_12:\n        /* \"iflelse.sol\":215:217  10 */\n      0x0a\n        /* \"iflelse.sol\":211:212  x */\n      dup3\n        /* \"iflelse.sol\":211:217  x > 10 */\n      sgt\n        /* \"iflelse.sol\":211:226  x > 10 && x <20 */\n      dup1\n      iszero\n      tag_14\n      jumpi\n      pop\n        /* \"iflelse.sol\":224:226  20 */\n      0x14\n        /* \"iflelse.sol\":221:222  x */\n      dup3\n        /* \"iflelse.sol\":221:226  x <20 */\n      slt\n        /* \"iflelse.sol\":211:226  x > 10 && x <20 */\n    tag_14:\n        /* \"iflelse.sol\":208:442  if(x > 10 && x <20){... */\n      iszero\n      tag_15\n      jumpi\n        /* \"iflelse.sol\":249:250  2 */\n      0x02\n        /* \"iflelse.sol\":242:250  return 2 */\n      swap1\n      pop\n      jump(tag_10)\n        /* \"iflelse.sol\":208:442  if(x > 10 && x <20){... */\n    tag_15:\n        /* \"iflelse.sol\":284:286  20 */\n      0x14\n        /* \"iflelse.sol\":280:281  x */\n      dup3\n        /* \"iflelse.sol\":280:286  x > 20 */\n      sgt\n        /* \"iflelse.sol\":280:295  x > 20 && x <30 */\n      dup1\n      iszero\n      tag_17\n      jumpi\n      pop\n        /* \"iflelse.sol\":293:295  30 */\n      0x1e\n        /* \"iflelse.sol\":290:291  x */\n      dup3\n        /* \"iflelse.sol\":290:295  x <30 */\n      slt\n        /* \"iflelse.sol\":280:295  x > 20 && x <30 */\n    tag_17:\n        /* \"iflelse.sol\":277:442  if(x > 20 && x <30){... */\n      iszero\n      tag_18\n      jumpi\n        /* \"iflelse.sol\":318:319  3 */\n      0x03\n        /* \"iflelse.sol\":311:319  return 3 */\n      swap1\n      pop\n      jump(tag_10)\n        /* \"iflelse.sol\":277:442  if(x > 20 && x <30){... */\n    tag_18:\n        /* \"iflelse.sol\":353:355  30 */\n      0x1e\n        /* \"iflelse.sol\":350:351  x */\n      dup3\n        /* \"iflelse.sol\":350:355  x >30 */\n      sgt\n        /* \"iflelse.sol\":346:442  if (x >30 ){... */\n      iszero\n      tag_20\n      jumpi\n        /* \"iflelse.sol\":379:380  4 */\n      0x04\n        /* \"iflelse.sol\":372:380  return 4 */\n      swap1\n      pop\n      jump(tag_10)\n        /* \"iflelse.sol\":346:442  if (x >30 ){... */\n    tag_20:\n        /* \"iflelse.sol\":429:430  5 */\n      0x05\n        /* \"iflelse.sol\":422:430  return 5 */\n      swap1\n      pop\n        /* \"iflelse.sol\":83:449  function condi(int x) public pure returns(int){... */\n    tag_10:\n      swap2\n      swap1\n      pop\n      jump\t// out\n        /* \"#utility.yul\":88:205   */\n    tag_23:\n        /* \"#utility.yul\":197:198   */\n      0x00\n        /* \"#utility.yul\":194:195   */\n      dup1\n        /* \"#utility.yul\":187:199   */\n      revert\n        /* \"#utility.yul\":334:410   */\n    tag_25:\n        /* \"#utility.yul\":370:377   */\n      0x00\n        /* \"#utility.yul\":399:404   */\n      dup2\n        /* \"#utility.yul\":388:404   */\n      swap1\n      pop\n        /* \"#utility.yul\":334:410   */\n      swap2\n      swap1\n      pop\n      jump\t// out\n        /* \"#utility.yul\":416:536   */\n    tag_26:\n        /* \"#utility.yul\":488:511   */\n      tag_35\n        /* \"#utility.yul\":505:510   */\n      dup2\n        /* \"#utility.yul\":488:511   */\n      tag_25\n      jump\t// in\n    tag_35:\n        /* \"#utility.yul\":481:486   */\n      dup2\n        /* \"#utility.yul\":478:512   */\n      eq\n        /* \"#utility.yul\":468:530   */\n      tag_36\n      jumpi\n        /* \"#utility.yul\":526:527   */\n      0x00\n        /* \"#utility.yul\":523:524   */\n      dup1\n        /* \"#utility.yul\":516:528   */\n      revert\n        /* \"#utility.yul\":468:530   */\n    tag_36:\n        /* \"#utility.yul\":416:536   */\n      pop\n      jump\t// out\n        /* \"#utility.yul\":542:679   */\n    tag_27:\n        /* \"#utility.yul\":587:592   */\n      0x00\n        /* \"#utility.yul\":625:631   */\n      dup2\n        /* \"#utility.yul\":612:632   */\n      calldataload\n        /* \"#utility.yul\":603:632   */\n      swap1\n      pop\n        /* \"#utility.yul\":641:673   */\n      tag_38\n        /* \"#utility.yul\":667:672   */\n      dup2\n        /* \"#utility.yul\":641:673   */\n      tag_26\n      jump\t// in\n    tag_38:\n        /* \"#utility.yul\":542:679   */\n      swap3\n      swap2\n      pop\n      pop\n      jump\t// out\n        /* \"#utility.yul\":685:1012   */\n    tag_6:\n        /* \"#utility.yul\":743:749   */\n      0x00\n        /* \"#utility.yul\":792:794   */\n      0x20\n        /* \"#utility.yul\":780:789   */\n      dup3\n        /* \"#utility.yul\":771:778   */\n      dup5\n        /* \"#utility.yul\":767:790   */\n      sub\n        /* \"#utility.yul\":763:795   */\n      slt\n        /* \"#utility.yul\":760:879   */\n      iszero\n      tag_40\n      jumpi\n        /* \"#utility.yul\":798:877   */\n      tag_41\n      tag_23\n      jump\t// in\n    tag_41:\n        /* \"#utility.yul\":760:879   */\n    tag_40:\n        /* \"#utility.yul\":918:919   */\n      0x00\n        /* \"#utility.yul\":943:995   */\n      tag_42\n        /* \"#utility.yul\":987:994   */\n      dup5\n        /* \"#utility.yul\":978:984   */\n      dup3\n        /* \"#utility.yul\":967:976   */\n      dup6\n        /* \"#utility.yul\":963:985   */\n      add\n        /* \"#utility.yul\":943:995   */\n      tag_27\n      jump\t// in\n    tag_42:\n        /* \"#utility.yul\":933:995   */\n      swap2\n      pop\n        /* \"#utility.yul\":889:1005   */\n      pop\n        /* \"#utility.yul\":685:1012   */\n      swap3\n      swap2\n      pop\n      pop\n      jump\t// out\n        /* \"#utility.yul\":1018:1133   */\n    tag_28:\n        /* \"#utility.yul\":1103:1126   */\n      tag_44\n        /* \"#utility.yul\":1120:1125   */\n      dup2\n        /* \"#utility.yul\":1103:1126   */\n      tag_25\n      jump\t// in\n    tag_44:\n        /* \"#utility.yul\":1098:1101   */\n      dup3\n        /* \"#utility.yul\":1091:1127   */\n      mstore\n        /* \"#utility.yul\":1018:1133   */\n      pop\n      pop\n      jump\t// out\n        /* \"#utility.yul\":1139:1357   */\n    tag_9:\n        /* \"#utility.yul\":1230:1234   */\n      0x00\n        /* \"#utility.yul\":1268:1270   */\n      0x20\n        /* \"#utility.yul\":1257:1266   */\n      dup3\n        /* \"#utility.yul\":1253:1271   */\n      add\n        /* \"#utility.yul\":1245:1271   */\n      swap1\n      pop\n        /* \"#utility.yul\":1281:1350   */\n      tag_46\n        /* \"#utility.yul\":1347:1348   */\n      0x00\n        /* \"#utility.yul\":1336:1345   */\n      dup4\n        /* \"#utility.yul\":1332:1349   */\n      add\n        /* \"#utility.yul\":1323:1329   */\n      dup5\n        /* \"#utility.yul\":1281:1350   */\n      tag_28\n      jump\t// in\n    tag_46:\n        /* \"#utility.yul\":1139:1357   */\n      swap3\n      swap2\n      pop\n      pop\n      jump\t// out\n\n    auxdata: 0xa2646970667358221220754eb3ceffe1bcb07b5016248eff4bc825eb47fc973f11aa6062106a9cf52d6964736f6c63430008120033\n}\n",
				"bytecode": {
					"linkReferences": {},
					"object": "608060405234801561001057600080fd5b5061019f806100206000396000f3fe608060405234801561001057600080fd5b506004361061002b5760003560e01c806376b6f6dd14610030575b600080fd5b61004a60048036038101906100459190610112565b610060565b604051610057919061014e565b60405180910390f35b600080821380156100715750600a82125b1561007f57600190506100d2565b600a8213801561008f5750601482125b1561009d57600290506100d2565b6014821380156100ad5750601e82125b156100bb57600390506100d2565b601e8213156100cd57600490506100d2565b600590505b919050565b600080fd5b6000819050919050565b6100ef816100dc565b81146100fa57600080fd5b50565b60008135905061010c816100e6565b92915050565b600060208284031215610128576101276100d7565b5b6000610136848285016100fd565b91505092915050565b610148816100dc565b82525050565b6000602082019050610163600083018461013f565b9291505056fea2646970667358221220754eb3ceffe1bcb07b5016248eff4bc825eb47fc973f11aa6062106a9cf52d6964736f6c63430008120033",
					"opcodes": "PUSH1 0x80 PUSH1 0x40 MSTORE CALLVALUE DUP1 ISZERO PUSH2 0x10 JUMPI PUSH1 0x0 DUP1 REVERT JUMPDEST POP PUSH2 0x19F DUP1 PUSH2 0x20 PUSH1 0x0 CODECOPY PUSH1 0x0 RETURN INVALID PUSH1 0x80 PUSH1 0x40 MSTORE CALLVALUE DUP1 ISZERO PUSH2 0x10 JUMPI PUSH1 0x0 DUP1 REVERT JUMPDEST POP PUSH1 0x4 CALLDATASIZE LT PUSH2 0x2B JUMPI PUSH1 0x0 CALLDATALOAD PUSH1 0xE0 SHR DUP1 PUSH4 0x76B6F6DD EQ PUSH2 0x30 JUMPI JUMPDEST PUSH1 0x0 DUP1 REVERT JUMPDEST PUSH2 0x4A PUSH1 0x4 DUP1 CALLDATASIZE SUB DUP2 ADD SWAP1 PUSH2 0x45 SWAP2 SWAP1 PUSH2 0x112 JUMP JUMPDEST PUSH2 0x60 JUMP JUMPDEST PUSH1 0x40 MLOAD PUSH2 0x57 SWAP2 SWAP1 PUSH2 0x14E JUMP JUMPDEST PUSH1 0x40 MLOAD DUP1 SWAP2 SUB SWAP1 RETURN JUMPDEST PUSH1 0x0 DUP1 DUP3 SGT DUP1 ISZERO PUSH2 0x71 JUMPI POP PUSH1 0xA DUP3 SLT JUMPDEST ISZERO PUSH2 0x7F JUMPI PUSH1 0x1 SWAP1 POP PUSH2 0xD2 JUMP JUMPDEST PUSH1 0xA DUP3 SGT DUP1 ISZERO PUSH2 0x8F JUMPI POP PUSH1 0x14 DUP3 SLT JUMPDEST ISZERO PUSH2 0x9D JUMPI PUSH1 0x2 SWAP1 POP PUSH2 0xD2 JUMP JUMPDEST PUSH1 0x14 DUP3 SGT DUP1 ISZERO PUSH2 0xAD JUMPI POP PUSH1 0x1E DUP3 SLT JUMPDEST ISZERO PUSH2 0xBB JUMPI PUSH1 0x3 SWAP1 POP PUSH2 0xD2 JUMP JUMPDEST PUSH1 0x1E DUP3 SGT ISZERO PUSH2 0xCD JUMPI PUSH1 0x4 SWAP1 POP PUSH2 0xD2 JUMP JUMPDEST PUSH1 0x5 SWAP1 POP JUMPDEST SWAP2 SWAP1 POP JUMP JUMPDEST PUSH1 0x0 DUP1 REVERT JUMPDEST PUSH1 0x0 DUP2 SWAP1 POP SWAP2 SWAP1 POP JUMP JUMPDEST PUSH2 0xEF DUP2 PUSH2 0xDC JUMP JUMPDEST DUP2 EQ PUSH2 0xFA JUMPI PUSH1 0x0 DUP1 REVERT JUMPDEST POP JUMP JUMPDEST PUSH1 0x0 DUP2 CALLDATALOAD SWAP1 POP PUSH2 0x10C DUP2 PUSH2 0xE6 JUMP JUMPDEST SWAP3 SWAP2 POP POP JUMP JUMPDEST PUSH1 0x0 PUSH1 0x20 DUP3 DUP5 SUB SLT ISZERO PUSH2 0x128 JUMPI PUSH2 0x127 PUSH2 0xD7 JUMP JUMPDEST JUMPDEST PUSH1 0x0 PUSH2 0x136 DUP5 DUP3 DUP6 ADD PUSH2 0xFD JUMP JUMPDEST SWAP2 POP POP SWAP3 SWAP2 POP POP JUMP JUMPDEST PUSH2 0x148 DUP2 PUSH2 0xDC JUMP JUMPDEST DUP3 MSTORE POP POP JUMP JUMPDEST PUSH1 0x0 PUSH1 0x20 DUP3 ADD SWAP1 POP PUSH2 0x163 PUSH1 0x0 DUP4 ADD DUP5 PUSH2 0x13F JUMP JUMPDEST SWAP3 SWAP2 POP POP JUMP INVALID LOG2 PUSH5 0x6970667358 0x22 SLT KECCAK256 PUSH22 0x4EB3CEFFE1BCB07B5016248EFF4BC825EB47FC973F11 0xAA PUSH1 0x62 LT PUSH11 0x9CF52D6964736F6C634300 ADDMOD SLT STOP CALLER "
				},
				"gasEstimates": {
					"creation": {
						"codeDepositCost": "83000",
						"executionCost": "129",
						"totalCost": "83129"
					},
					"external": {
						"condi(int256)": "infinite"
					}
				},
				"methodIdentifiers": {
					"condi(int256)": "76b6f6dd"
				}
			},
			"storageLayout": {
				"storage": [],
				"types": null
			},
			"userdoc": {
				"kind": "user",
				"methods": {},
				"version": 1
			}
		}
	}
}