{
	"function.sol": {
		"Function": {
			"abi": [
				{
					"inputs": [],
					"name": "AssignValues",
					"outputs": [
						{
							"internalType": "uint256",
							"name": "x",
							"type": "uint256"
						},
						{
							"internalType": "bool",
							"name": "b",
							"type": "bool"
						},
						{
							"internalType": "int256",
							"name": "y",
							"type": "int256"
						}
					],
					"stateMutability": "pure",
					"type": "function"
				},
				{
					"inputs": [],
					"name": "destructuring",
					"outputs": [
						{
							"internalType": "uint256",
							"name": "",
							"type": "uint256"
						},
						{
							"internalType": "bool",
							"name": "",
							"type": "bool"
						},
						{
							"internalType": "uint256",
							"name": "",
							"type": "uint256"
						},
						{
							"internalType": "uint256",
							"name": "",
							"type": "uint256"
						},
						{
							"internalType": "uint256",
							"name": "",
							"type": "uint256"
						}
					],
					"stateMutability": "pure",
					"type": "function"
				},
				{
					"inputs": [],
					"name": "returnMultiple",
					"outputs": [
						{
							"internalType": "uint256",
							"name": "",
							"type": "uint256"
						},
						{
							"internalType": "bool",
							"name": "",
							"type": "bool"
						},
						{
							"internalType": "uint256",
							"name": "",
							"type": "uint256"
						}
					],
					"stateMutability": "pure",
					"type": "function"
				},
				{
					"inputs": [],
					"name": "returnNamed",
					"outputs": [
						{
							"internalType": "uint256",
							"name": "x",
							"type": "uint256"
						},
						{
							"internalType": "bool",
							"name": "b",
							"type": "bool"
						},
						{
							"internalType": "int256",
							"name": "y",
							"type": "int256"
						}
					],
					"stateMutability": "pure",
					"type": "function"
				}
			],
			"devdoc": {
				"kind": "dev",
				"methods": {},
				"version": 1
			},
			"evm": {
				"assembly": "    /* \"function.sol\":59:729  contract Function{... */\n  mstore(0x40, 0x80)\n  callvalue\n  dup1\n  iszero\n  tag_1\n  jumpi\n  0x00\n  dup1\n  revert\ntag_1:\n  pop\n  dataSize(sub_0)\n  dup1\n  dataOffset(sub_0)\n  0x00\n  codecopy\n  0x00\n  return\nstop\n\nsub_0: assembly {\n        /* \"function.sol\":59:729  contract Function{... */\n      mstore(0x40, 0x80)\n      callvalue\n      dup1\n      iszero\n      tag_1\n      jumpi\n      0x00\n      dup1\n      revert\n    tag_1:\n      pop\n      jumpi(tag_2, lt(calldatasize, 0x04))\n      shr(0xe0, calldataload(0x00))\n      dup1\n      0x3dece511\n      eq\n      tag_3\n      jumpi\n      dup1\n      0x7297237f\n      eq\n      tag_4\n      jumpi\n      dup1\n      0xe61e4008\n      eq\n      tag_5\n      jumpi\n      dup1\n      0xeb0faae8\n      eq\n      tag_6\n      jumpi\n    tag_2:\n      0x00\n      dup1\n      revert\n        /* \"function.sol\":238:341  function returnNamed() public pure returns (uint x ,bool b,int y ){... */\n    tag_3:\n      tag_7\n      tag_8\n      jump\t// in\n    tag_7:\n      mload(0x40)\n      tag_9\n      swap4\n      swap3\n      swap2\n      swap1\n      tag_10\n      jump\t// in\n    tag_9:\n      mload(0x40)\n      dup1\n      swap2\n      sub\n      swap1\n      return\n        /* \"function.sol\":512:718  function destructuring() public pure returns(uint,bool,uint,uint,uint){... */\n    tag_4:\n      tag_11\n      tag_12\n      jump\t// in\n    tag_11:\n      mload(0x40)\n      tag_13\n      swap6\n      swap5\n      swap4\n      swap3\n      swap2\n      swap1\n      tag_14\n      jump\t// in\n    tag_13:\n      mload(0x40)\n      dup1\n      swap2\n      sub\n      swap1\n      return\n        /* \"function.sol\":127:226  function returnMultiple() public pure returns(uint,bool,uint){... */\n    tag_5:\n      tag_15\n      tag_16\n      jump\t// in\n    tag_15:\n      mload(0x40)\n      tag_17\n      swap4\n      swap3\n      swap2\n      swap1\n      tag_18\n      jump\t// in\n    tag_17:\n      mload(0x40)\n      dup1\n      swap2\n      sub\n      swap1\n      return\n        /* \"function.sol\":349:504  function AssignValues() public pure returns(uint x ,bool b,int y){... */\n    tag_6:\n      tag_19\n      tag_20\n      jump\t// in\n    tag_19:\n      mload(0x40)\n      tag_21\n      swap4\n      swap3\n      swap2\n      swap1\n      tag_10\n      jump\t// in\n    tag_21:\n      mload(0x40)\n      dup1\n      swap2\n      sub\n      swap1\n      return\n        /* \"function.sol\":238:341  function returnNamed() public pure returns (uint x ,bool b,int y ){... */\n    tag_8:\n        /* \"function.sol\":282:288  uint x */\n      0x00\n        /* \"function.sol\":290:296  bool b */\n      dup1\n        /* \"function.sol\":297:302  int y */\n      0x00\n        /* \"function.sol\":323:324  1 */\n      0x01\n        /* \"function.sol\":325:329  true */\n      dup1\n        /* \"function.sol\":330:332  -5 */\n      0xfffffffffffffffffffffffffffffffffffffffffffffffffffffffffffffffb\n        /* \"function.sol\":315:333  return (1,true,-5) */\n      swap3\n      pop\n      swap3\n      pop\n      swap3\n      pop\n        /* \"function.sol\":238:341  function returnNamed() public pure returns (uint x ,bool b,int y ){... */\n      swap1\n      swap2\n      swap3\n      jump\t// out\n        /* \"function.sol\":512:718  function destructuring() public pure returns(uint,bool,uint,uint,uint){... */\n    tag_12:\n        /* \"function.sol\":557:561  uint */\n      0x00\n        /* \"function.sol\":562:566  bool */\n      dup1\n        /* \"function.sol\":567:571  uint */\n      0x00\n        /* \"function.sol\":572:576  uint */\n      dup1\n        /* \"function.sol\":577:581  uint */\n      0x00\n        /* \"function.sol\":594:600  uint i */\n      dup1\n        /* \"function.sol\":601:607  bool b */\n      0x00\n        /* \"function.sol\":608:614  uint j */\n      dup1\n        /* \"function.sol\":618:634  returnMultiple() */\n      tag_24\n        /* \"function.sol\":618:632  returnMultiple */\n      tag_16\n        /* \"function.sol\":618:634  returnMultiple() */\n      jump\t// in\n    tag_24:\n        /* \"function.sol\":593:634  (uint i,bool b,uint j) = returnMultiple() */\n      swap3\n      pop\n      swap3\n      pop\n      swap3\n      pop\n        /* \"function.sol\":646:652  uint x */\n      0x00\n        /* \"function.sol\":653:659  uint m */\n      dup1\n        /* \"function.sol\":661:667  uint y */\n      0x00\n        /* \"function.sol\":672:674  10 */\n      0x0a\n        /* \"function.sol\":675:677  15 */\n      0x0f\n        /* \"function.sol\":678:680  20 */\n      0x14\n        /* \"function.sol\":645:681  (uint x,uint m ,uint y) = (10,15,20) */\n      swap3\n      pop\n      swap3\n      pop\n      swap3\n      pop\n        /* \"function.sol\":700:701  i */\n      dup6\n        /* \"function.sol\":702:703  b */\n      dup6\n        /* \"function.sol\":704:705  j */\n      dup6\n        /* \"function.sol\":706:707  x */\n      dup6\n        /* \"function.sol\":708:709  m */\n      dup6\n        /* \"function.sol\":692:710  return (i,b,j,x,m) */\n      swap11\n      pop\n      swap11\n      pop\n      swap11\n      pop\n      swap11\n      pop\n      swap11\n      pop\n      pop\n      pop\n      pop\n      pop\n      pop\n      pop\n        /* \"function.sol\":512:718  function destructuring() public pure returns(uint,bool,uint,uint,uint){... */\n      swap1\n      swap2\n      swap3\n      swap4\n      swap5\n      jump\t// out\n        /* \"function.sol\":127:226  function returnMultiple() public pure returns(uint,bool,uint){... */\n    tag_16:\n        /* \"function.sol\":173:177  uint */\n      0x00\n        /* \"function.sol\":178:182  bool */\n      dup1\n        /* \"function.sol\":183:187  uint */\n      0x00\n        /* \"function.sol\":207:208  5 */\n      0x05\n        /* \"function.sol\":209:214  false */\n      0x00\n        /* \"function.sol\":215:217  10 */\n      0x0a\n        /* \"function.sol\":199:218  return (5,false,10) */\n      swap3\n      pop\n      swap3\n      pop\n      swap3\n      pop\n        /* \"function.sol\":127:226  function returnMultiple() public pure returns(uint,bool,uint){... */\n      swap1\n      swap2\n      swap3\n      jump\t// out\n        /* \"function.sol\":349:504  function AssignValues() public pure returns(uint x ,bool b,int y){... */\n    tag_20:\n        /* \"function.sol\":393:399  uint x */\n      0x00\n        /* \"function.sol\":401:407  bool b */\n      dup1\n        /* \"function.sol\":408:413  int y */\n      0x00\n        /* \"function.sol\":429:431  30 */\n      0x1e\n        /* \"function.sol\":425:431  x = 30 */\n      swap3\n      pop\n        /* \"function.sol\":446:451  false */\n      0x00\n        /* \"function.sol\":442:451  b = false */\n      swap2\n      pop\n        /* \"function.sol\":466:469  -50 */\n      0xffffffffffffffffffffffffffffffffffffffffffffffffffffffffffffffce\n        /* \"function.sol\":462:469  y = -50 */\n      swap1\n      pop\n        /* \"function.sol\":349:504  function AssignValues() public pure returns(uint x ,bool b,int y){... */\n      swap1\n      swap2\n      swap3\n      jump\t// out\n        /* \"#utility.yul\":7:84   */\n    tag_27:\n        /* \"#utility.yul\":44:51   */\n      0x00\n        /* \"#utility.yul\":73:78   */\n      dup2\n        /* \"#utility.yul\":62:78   */\n      swap1\n      pop\n        /* \"#utility.yul\":7:84   */\n      swap2\n      swap1\n      pop\n      jump\t// out\n        /* \"#utility.yul\":90:208   */\n    tag_28:\n        /* \"#utility.yul\":177:201   */\n      tag_36\n        /* \"#utility.yul\":195:200   */\n      dup2\n        /* \"#utility.yul\":177:201   */\n      tag_27\n      jump\t// in\n    tag_36:\n        /* \"#utility.yul\":172:175   */\n      dup3\n        /* \"#utility.yul\":165:202   */\n      mstore\n        /* \"#utility.yul\":90:208   */\n      pop\n      pop\n      jump\t// out\n        /* \"#utility.yul\":214:304   */\n    tag_29:\n        /* \"#utility.yul\":248:255   */\n      0x00\n        /* \"#utility.yul\":291:296   */\n      dup2\n        /* \"#utility.yul\":284:297   */\n      iszero\n        /* \"#utility.yul\":277:298   */\n      iszero\n        /* \"#utility.yul\":266:298   */\n      swap1\n      pop\n        /* \"#utility.yul\":214:304   */\n      swap2\n      swap1\n      pop\n      jump\t// out\n        /* \"#utility.yul\":310:419   */\n    tag_30:\n        /* \"#utility.yul\":391:412   */\n      tag_39\n        /* \"#utility.yul\":406:411   */\n      dup2\n        /* \"#utility.yul\":391:412   */\n      tag_29\n      jump\t// in\n    tag_39:\n        /* \"#utility.yul\":386:389   */\n      dup3\n        /* \"#utility.yul\":379:413   */\n      mstore\n        /* \"#utility.yul\":310:419   */\n      pop\n      pop\n      jump\t// out\n        /* \"#utility.yul\":425:501   */\n    tag_31:\n        /* \"#utility.yul\":461:468   */\n      0x00\n        /* \"#utility.yul\":490:495   */\n      dup2\n        /* \"#utility.yul\":479:495   */\n      swap1\n      pop\n        /* \"#utility.yul\":425:501   */\n      swap2\n      swap1\n      pop\n      jump\t// out\n        /* \"#utility.yul\":507:622   */\n    tag_32:\n        /* \"#utility.yul\":592:615   */\n      tag_42\n        /* \"#utility.yul\":609:614   */\n      dup2\n        /* \"#utility.yul\":592:615   */\n      tag_31\n      jump\t// in\n    tag_42:\n        /* \"#utility.yul\":587:590   */\n      dup3\n        /* \"#utility.yul\":580:616   */\n      mstore\n        /* \"#utility.yul\":507:622   */\n      pop\n      pop\n      jump\t// out\n        /* \"#utility.yul\":628:1054   */\n    tag_10:\n        /* \"#utility.yul\":769:773   */\n      0x00\n        /* \"#utility.yul\":807:809   */\n      0x60\n        /* \"#utility.yul\":796:805   */\n      dup3\n        /* \"#utility.yul\":792:810   */\n      add\n        /* \"#utility.yul\":784:810   */\n      swap1\n      pop\n        /* \"#utility.yul\":820:891   */\n      tag_44\n        /* \"#utility.yul\":888:889   */\n      0x00\n        /* \"#utility.yul\":877:886   */\n      dup4\n        /* \"#utility.yul\":873:890   */\n      add\n        /* \"#utility.yul\":864:870   */\n      dup7\n        /* \"#utility.yul\":820:891   */\n      tag_28\n      jump\t// in\n    tag_44:\n        /* \"#utility.yul\":901:967   */\n      tag_45\n        /* \"#utility.yul\":963:965   */\n      0x20\n        /* \"#utility.yul\":952:961   */\n      dup4\n        /* \"#utility.yul\":948:966   */\n      add\n        /* \"#utility.yul\":939:945   */\n      dup6\n        /* \"#utility.yul\":901:967   */\n      tag_30\n      jump\t// in\n    tag_45:\n        /* \"#utility.yul\":977:1047   */\n      tag_46\n        /* \"#utility.yul\":1043:1045   */\n      0x40\n        /* \"#utility.yul\":1032:1041   */\n      dup4\n        /* \"#utility.yul\":1028:1046   */\n      add\n        /* \"#utility.yul\":1019:1025   */\n      dup5\n        /* \"#utility.yul\":977:1047   */\n      tag_32\n      jump\t// in\n    tag_46:\n        /* \"#utility.yul\":628:1054   */\n      swap5\n      swap4\n      pop\n      pop\n      pop\n      pop\n      jump\t// out\n        /* \"#utility.yul\":1060:1712   */\n    tag_14:\n        /* \"#utility.yul\":1259:1263   */\n      0x00\n        /* \"#utility.yul\":1297:1300   */\n      0xa0\n        /* \"#utility.yul\":1286:1295   */\n      dup3\n        /* \"#utility.yul\":1282:1301   */\n      add\n        /* \"#utility.yul\":1274:1301   */\n      swap1\n      pop\n        /* \"#utility.yul\":1311:1382   */\n      tag_48\n        /* \"#utility.yul\":1379:1380   */\n      0x00\n        /* \"#utility.yul\":1368:1377   */\n      dup4\n        /* \"#utility.yul\":1364:1381   */\n      add\n        /* \"#utility.yul\":1355:1361   */\n      dup9\n        /* \"#utility.yul\":1311:1382   */\n      tag_28\n      jump\t// in\n    tag_48:\n        /* \"#utility.yul\":1392:1458   */\n      tag_49\n        /* \"#utility.yul\":1454:1456   */\n      0x20\n        /* \"#utility.yul\":1443:1452   */\n      dup4\n        /* \"#utility.yul\":1439:1457   */\n      add\n        /* \"#utility.yul\":1430:1436   */\n      dup8\n        /* \"#utility.yul\":1392:1458   */\n      tag_30\n      jump\t// in\n    tag_49:\n        /* \"#utility.yul\":1468:1540   */\n      tag_50\n        /* \"#utility.yul\":1536:1538   */\n      0x40\n        /* \"#utility.yul\":1525:1534   */\n      dup4\n        /* \"#utility.yul\":1521:1539   */\n      add\n        /* \"#utility.yul\":1512:1518   */\n      dup7\n        /* \"#utility.yul\":1468:1540   */\n      tag_28\n      jump\t// in\n    tag_50:\n        /* \"#utility.yul\":1550:1622   */\n      tag_51\n        /* \"#utility.yul\":1618:1620   */\n      0x60\n        /* \"#utility.yul\":1607:1616   */\n      dup4\n        /* \"#utility.yul\":1603:1621   */\n      add\n        /* \"#utility.yul\":1594:1600   */\n      dup6\n        /* \"#utility.yul\":1550:1622   */\n      tag_28\n      jump\t// in\n    tag_51:\n        /* \"#utility.yul\":1632:1705   */\n      tag_52\n        /* \"#utility.yul\":1700:1703   */\n      0x80\n        /* \"#utility.yul\":1689:1698   */\n      dup4\n        /* \"#utility.yul\":1685:1704   */\n      add\n        /* \"#utility.yul\":1676:1682   */\n      dup5\n        /* \"#utility.yul\":1632:1705   */\n      tag_28\n      jump\t// in\n    tag_52:\n        /* \"#utility.yul\":1060:1712   */\n      swap7\n      swap6\n      pop\n      pop\n      pop\n      pop\n      pop\n      pop\n      jump\t// out\n        /* \"#utility.yul\":1718:2148   */\n    tag_18:\n        /* \"#utility.yul\":1861:1865   */\n      0x00\n        /* \"#utility.yul\":1899:1901   */\n      0x60\n        /* \"#utility.yul\":1888:1897   */\n      dup3\n        /* \"#utility.yul\":1884:1902   */\n      add\n        /* \"#utility.yul\":1876:1902   */\n      swap1\n      pop\n        /* \"#utility.yul\":1912:1983   */\n      tag_54\n        /* \"#utility.yul\":1980:1981   */\n      0x00\n        /* \"#utility.yul\":1969:1978   */\n      dup4\n        /* \"#utility.yul\":1965:1982   */\n      add\n        /* \"#utility.yul\":1956:1962   */\n      dup7\n        /* \"#utility.yul\":1912:1983   */\n      tag_28\n      jump\t// in\n    tag_54:\n        /* \"#utility.yul\":1993:2059   */\n      tag_55\n        /* \"#utility.yul\":2055:2057   */\n      0x20\n        /* \"#utility.yul\":2044:2053   */\n      dup4\n        /* \"#utility.yul\":2040:2058   */\n      add\n        /* \"#utility.yul\":2031:2037   */\n      dup6\n        /* \"#utility.yul\":1993:2059   */\n      tag_30\n      jump\t// in\n    tag_55:\n        /* \"#utility.yul\":2069:2141   */\n      tag_56\n        /* \"#utility.yul\":2137:2139   */\n      0x40\n        /* \"#utility.yul\":2126:2135   */\n      dup4\n        /* \"#utility.yul\":2122:2140   */\n      add\n        /* \"#utility.yul\":2113:2119   */\n      dup5\n        /* \"#utility.yul\":2069:2141   */\n      tag_28\n      jump\t// in\n    tag_56:\n        /* \"#utility.yul\":1718:2148   */\n      swap5\n      swap4\n      pop\n      pop\n      pop\n      pop\n      jump\t// out\n\n    auxdata: 0xa26469706673582212203c2e8c4c40e7228f8ef9fa012b4f6fca2bb17fde4b0d5f8bb55d81034239922664736f6c63430008120033\n}\n",
				"bytecode": {
					"linkReferences": {},
					"object": "608060405234801561001057600080fd5b506102dd806100206000396000f3fe608060405234801561001057600080fd5b506004361061004c5760003560e01c80633dece511146100515780637297237f14610071578063e61e400814610093578063eb0faae8146100b3575b600080fd5b6100596100d3565b604051610068939291906101e6565b60405180910390f35b610079610107565b60405161008a95949392919061021d565b60405180910390f35b61009b61014e565b6040516100aa93929190610270565b60405180910390f35b6100bb610164565b6040516100ca939291906101e6565b60405180910390f35b60008060006001807ffffffffffffffffffffffffffffffffffffffffffffffffffffffffffffffffb925092509250909192565b60008060008060008060008061011b61014e565b9250925092506000806000600a600f601492509250925085858585859a509a509a509a509a505050505050509091929394565b600080600060056000600a925092509250909192565b6000806000601e9250600091507fffffffffffffffffffffffffffffffffffffffffffffffffffffffffffffffce9050909192565b6000819050919050565b6101ac81610199565b82525050565b60008115159050919050565b6101c7816101b2565b82525050565b6000819050919050565b6101e0816101cd565b82525050565b60006060820190506101fb60008301866101a3565b61020860208301856101be565b61021560408301846101d7565b949350505050565b600060a08201905061023260008301886101a3565b61023f60208301876101be565b61024c60408301866101a3565b61025960608301856101a3565b61026660808301846101a3565b9695505050505050565b600060608201905061028560008301866101a3565b61029260208301856101be565b61029f60408301846101a3565b94935050505056fea26469706673582212203c2e8c4c40e7228f8ef9fa012b4f6fca2bb17fde4b0d5f8bb55d81034239922664736f6c63430008120033",
					"opcodes": "PUSH1 0x80 PUSH1 0x40 MSTORE CALLVALUE DUP1 ISZERO PUSH2 0x10 JUMPI PUSH1 0x0 DUP1 REVERT JUMPDEST POP PUSH2 0x2DD DUP1 PUSH2 0x20 PUSH1 0x0 CODECOPY PUSH1 0x0 RETURN INVALID PUSH1 0x80 PUSH1 0x40 MSTORE CALLVALUE DUP1 ISZERO PUSH2 0x10 JUMPI PUSH1 0x0 DUP1 REVERT JUMPDEST POP PUSH1 0x4 CALLDATASIZE LT PUSH2 0x4C JUMPI PUSH1 0x0 CALLDATALOAD PUSH1 0xE0 SHR DUP1 PUSH4 0x3DECE511 EQ PUSH2 0x51 JUMPI DUP1 PUSH4 0x7297237F EQ PUSH2 0x71 JUMPI DUP1 PUSH4 0xE61E4008 EQ PUSH2 0x93 JUMPI DUP1 PUSH4 0xEB0FAAE8 EQ PUSH2 0xB3 JUMPI JUMPDEST PUSH1 0x0 DUP1 REVERT JUMPDEST PUSH2 0x59 PUSH2 0xD3 JUMP JUMPDEST PUSH1 0x40 MLOAD PUSH2 0x68 SWAP4 SWAP3 SWAP2 SWAP1 PUSH2 0x1E6 JUMP JUMPDEST PUSH1 0x40 MLOAD DUP1 SWAP2 SUB SWAP1 RETURN JUMPDEST PUSH2 0x79 PUSH2 0x107 JUMP JUMPDEST PUSH1 0x40 MLOAD PUSH2 0x8A SWAP6 SWAP5 SWAP4 SWAP3 SWAP2 SWAP1 PUSH2 0x21D JUMP JUMPDEST PUSH1 0x40 MLOAD DUP1 SWAP2 SUB SWAP1 RETURN JUMPDEST PUSH2 0x9B PUSH2 0x14E JUMP JUMPDEST PUSH1 0x40 MLOAD PUSH2 0xAA SWAP4 SWAP3 SWAP2 SWAP1 PUSH2 0x270 JUMP JUMPDEST PUSH1 0x40 MLOAD DUP1 SWAP2 SUB SWAP1 RETURN JUMPDEST PUSH2 0xBB PUSH2 0x164 JUMP JUMPDEST PUSH1 0x40 MLOAD PUSH2 0xCA SWAP4 SWAP3 SWAP2 SWAP1 PUSH2 0x1E6 JUMP JUMPDEST PUSH1 0x40 MLOAD DUP1 SWAP2 SUB SWAP1 RETURN JUMPDEST PUSH1 0x0 DUP1 PUSH1 0x0 PUSH1 0x1 DUP1 PUSH32 0xFFFFFFFFFFFFFFFFFFFFFFFFFFFFFFFFFFFFFFFFFFFFFFFFFFFFFFFFFFFFFFFB SWAP3 POP SWAP3 POP SWAP3 POP SWAP1 SWAP2 SWAP3 JUMP JUMPDEST PUSH1 0x0 DUP1 PUSH1 0x0 DUP1 PUSH1 0x0 DUP1 PUSH1 0x0 DUP1 PUSH2 0x11B PUSH2 0x14E JUMP JUMPDEST SWAP3 POP SWAP3 POP SWAP3 POP PUSH1 0x0 DUP1 PUSH1 0x0 PUSH1 0xA PUSH1 0xF PUSH1 0x14 SWAP3 POP SWAP3 POP SWAP3 POP DUP6 DUP6 DUP6 DUP6 DUP6 SWAP11 POP SWAP11 POP SWAP11 POP SWAP11 POP SWAP11 POP POP POP POP POP POP POP SWAP1 SWAP2 SWAP3 SWAP4 SWAP5 JUMP JUMPDEST PUSH1 0x0 DUP1 PUSH1 0x0 PUSH1 0x5 PUSH1 0x0 PUSH1 0xA SWAP3 POP SWAP3 POP SWAP3 POP SWAP1 SWAP2 SWAP3 JUMP JUMPDEST PUSH1 0x0 DUP1 PUSH1 0x0 PUSH1 0x1E SWAP3 POP PUSH1 0x0 SWAP2 POP PUSH32 0xFFFFFFFFFFFFFFFFFFFFFFFFFFFFFFFFFFFFFFFFFFFFFFFFFFFFFFFFFFFFFFCE SWAP1 POP SWAP1 SWAP2 SWAP3 JUMP JUMPDEST PUSH1 0x0 DUP2 SWAP1 POP SWAP2 SWAP1 POP JUMP JUMPDEST PUSH2 0x1AC DUP2 PUSH2 0x199 JUMP JUMPDEST DUP3 MSTORE POP POP JUMP JUMPDEST PUSH1 0x0 DUP2 ISZERO ISZERO SWAP1 POP SWAP2 SWAP1 POP JUMP JUMPDEST PUSH2 0x1C7 DUP2 PUSH2 0x1B2 JUMP JUMPDEST DUP3 MSTORE POP POP JUMP JUMPDEST PUSH1 0x0 DUP2 SWAP1 POP SWAP2 SWAP1 POP JUMP JUMPDEST PUSH2 0x1E0 DUP2 PUSH2 0x1CD JUMP JUMPDEST DUP3 MSTORE POP POP JUMP JUMPDEST PUSH1 0x0 PUSH1 0x60 DUP3 ADD SWAP1 POP PUSH2 0x1FB PUSH1 0x0 DUP4 ADD DUP7 PUSH2 0x1A3 JUMP JUMPDEST PUSH2 0x208 PUSH1 0x20 DUP4 ADD DUP6 PUSH2 0x1BE JUMP JUMPDEST PUSH2 0x215 PUSH1 0x40 DUP4 ADD DUP5 PUSH2 0x1D7 JUMP JUMPDEST SWAP5 SWAP4 POP POP POP POP JUMP JUMPDEST PUSH1 0x0 PUSH1 0xA0 DUP3 ADD SWAP1 POP PUSH2 0x232 PUSH1 0x0 DUP4 ADD DUP9 PUSH2 0x1A3 JUMP JUMPDEST PUSH2 0x23F PUSH1 0x20 DUP4 ADD DUP8 PUSH2 0x1BE JUMP JUMPDEST PUSH2 0x24C PUSH1 0x40 DUP4 ADD DUP7 PUSH2 0x1A3 JUMP JUMPDEST PUSH2 0x259 PUSH1 0x60 DUP4 ADD DUP6 PUSH2 0x1A3 JUMP JUMPDEST PUSH2 0x266 PUSH1 0x80 DUP4 ADD DUP5 PUSH2 0x1A3 JUMP JUMPDEST SWAP7 SWAP6 POP POP POP POP POP POP JUMP JUMPDEST PUSH1 0x0 PUSH1 0x60 DUP3 ADD SWAP1 POP PUSH2 0x285 PUSH1 0x0 DUP4 ADD DUP7 PUSH2 0x1A3 JUMP JUMPDEST PUSH2 0x292 PUSH1 0x20 DUP4 ADD DUP6 PUSH2 0x1BE JUMP JUMPDEST PUSH2 0x29F PUSH1 0x40 DUP4 ADD DUP5 PUSH2 0x1A3 JUMP JUMPDEST SWAP5 SWAP4 POP POP POP POP JUMP INVALID LOG2 PUSH5 0x6970667358 0x22 SLT KECCAK256 EXTCODECOPY 0x2E DUP13 0x4C BLOCKHASH 0xE7 0x22 DUP16 DUP15 0xF9 STATICCALL ADD 0x2B 0x4F PUSH16 0xCA2BB17FDE4B0D5F8BB55D8103423992 0x26 PUSH5 0x736F6C6343 STOP ADDMOD SLT STOP CALLER "
				},
				"gasEstimates": {
					"creation": {
						"codeDepositCost": "146600",
						"executionCost": "190",
						"totalCost": "146790"
					},
					"external": {
						"AssignValues()": "615",
						"destructuring()": "infinite",
						"returnMultiple()": "infinite",
						"returnNamed()": "549"
					}
				},
				"methodIdentifiers": {
					"AssignValues()": "eb0faae8",
					"destructuring()": "7297237f",
					"returnMultiple()": "e61e4008",
					"returnNamed()": "3dece511"
				}
			},
			"storageLayout": {
				"storage": [],
				"types": null
			},
			"userdoc": {
				"kind": "user",
				"methods": {},
				"version": 1
			}
		}
	}
}