{
	"function.sol": {
		"secondFunction": {
			"abi": [
				{
					"inputs": [
						{
							"internalType": "uint256",
							"name": "x",
							"type": "uint256"
						},
						{
							"internalType": "uint256",
							"name": "y",
							"type": "uint256"
						},
						{
							"internalType": "uint256",
							"name": "z",
							"type": "uint256"
						},
						{
							"internalType": "address",
							"name": "a",
							"type": "address"
						},
						{
							"internalType": "bool",
							"name": "b",
							"type": "bool"
						},
						{
							"internalType": "string",
							"name": "c",
							"type": "string"
						}
					],
					"name": "SecondFunctionContract",
					"outputs": [
						{
							"internalType": "uint256",
							"name": "",
							"type": "uint256"
						}
					],
					"stateMutability": "pure",
					"type": "function"
				},
				{
					"inputs": [],
					"name": "callFunction",
					"outputs": [
						{
							"internalType": "address",
							"name": "",
							"type": "address"
						}
					],
					"stateMutability": "view",
					"type": "function"
				}
			],
			"devdoc": {
				"kind": "dev",
				"methods": {},
				"version": 1
			},
			"evm": {
				"assembly": "    /* \"function.sol\":733:993  contract secondFunction{... */\n  mstore(0x40, 0x80)\n  callvalue\n  dup1\n  iszero\n  tag_1\n  jumpi\n  0x00\n  dup1\n  revert\ntag_1:\n  pop\n  dataSize(sub_0)\n  dup1\n  dataOffset(sub_0)\n  0x00\n  codecopy\n  0x00\n  return\nstop\n\nsub_0: assembly {\n        /* \"function.sol\":733:993  contract secondFunction{... */\n      mstore(0x40, 0x80)\n      callvalue\n      dup1\n      iszero\n      tag_1\n      jumpi\n      0x00\n      dup1\n      revert\n    tag_1:\n      pop\n      jumpi(tag_2, lt(calldatasize, 0x04))\n      shr(0xe0, calldataload(0x00))\n      dup1\n      0xbedfc5a1\n      eq\n      tag_3\n      jumpi\n      dup1\n      0xcdc1b06f\n      eq\n      tag_4\n      jumpi\n    tag_2:\n      0x00\n      dup1\n      revert\n        /* \"function.sol\":895:989  function callFunction() external  view returns(address){... */\n    tag_3:\n      tag_5\n      tag_6\n      jump\t// in\n    tag_5:\n      mload(0x40)\n      tag_7\n      swap2\n      swap1\n      tag_8\n      jump\t// in\n    tag_7:\n      mload(0x40)\n      dup1\n      swap2\n      sub\n      swap1\n      return\n        /* \"function.sol\":763:887  function SecondFunctionContract(uint x, uint y , uint z,address a, bool b,string memory c) ... */\n    tag_4:\n      tag_9\n      0x04\n      dup1\n      calldatasize\n      sub\n      dup2\n      add\n      swap1\n      tag_10\n      swap2\n      swap1\n      tag_11\n      jump\t// in\n    tag_10:\n      tag_12\n      jump\t// in\n    tag_9:\n      mload(0x40)\n      tag_13\n      swap2\n      swap1\n      tag_14\n      jump\t// in\n    tag_13:\n      mload(0x40)\n      dup1\n      swap2\n      sub\n      swap1\n      return\n        /* \"function.sol\":895:989  function callFunction() external  view returns(address){... */\n    tag_6:\n        /* \"function.sol\":942:949  address */\n      0x00\n        /* \"function.sol\":970:980  msg.sender */\n      caller\n        /* \"function.sol\":962:981  return (msg.sender) */\n      swap1\n      pop\n        /* \"function.sol\":895:989  function callFunction() external  view returns(address){... */\n      swap1\n      jump\t// out\n        /* \"function.sol\":763:887  function SecondFunctionContract(uint x, uint y , uint z,address a, bool b,string memory c) ... */\n    tag_12:\n        /* \"function.sol\":880:884  uint */\n      0x00\n        /* \"function.sol\":763:887  function SecondFunctionContract(uint x, uint y , uint z,address a, bool b,string memory c) ... */\n      swap7\n      swap6\n      pop\n      pop\n      pop\n      pop\n      pop\n      pop\n      jump\t// out\n        /* \"#utility.yul\":7:133   */\n    tag_17:\n        /* \"#utility.yul\":44:51   */\n      0x00\n        /* \"#utility.yul\":84:126   */\n      0xffffffffffffffffffffffffffffffffffffffff\n        /* \"#utility.yul\":77:82   */\n      dup3\n        /* \"#utility.yul\":73:127   */\n      and\n        /* \"#utility.yul\":62:127   */\n      swap1\n      pop\n        /* \"#utility.yul\":7:133   */\n      swap2\n      swap1\n      pop\n      jump\t// out\n        /* \"#utility.yul\":139:235   */\n    tag_18:\n        /* \"#utility.yul\":176:183   */\n      0x00\n        /* \"#utility.yul\":205:229   */\n      tag_45\n        /* \"#utility.yul\":223:228   */\n      dup3\n        /* \"#utility.yul\":205:229   */\n      tag_17\n      jump\t// in\n    tag_45:\n        /* \"#utility.yul\":194:229   */\n      swap1\n      pop\n        /* \"#utility.yul\":139:235   */\n      swap2\n      swap1\n      pop\n      jump\t// out\n        /* \"#utility.yul\":241:359   */\n    tag_19:\n        /* \"#utility.yul\":328:352   */\n      tag_47\n        /* \"#utility.yul\":346:351   */\n      dup2\n        /* \"#utility.yul\":328:352   */\n      tag_18\n      jump\t// in\n    tag_47:\n        /* \"#utility.yul\":323:326   */\n      dup3\n        /* \"#utility.yul\":316:353   */\n      mstore\n        /* \"#utility.yul\":241:359   */\n      pop\n      pop\n      jump\t// out\n        /* \"#utility.yul\":365:587   */\n    tag_8:\n        /* \"#utility.yul\":458:462   */\n      0x00\n        /* \"#utility.yul\":496:498   */\n      0x20\n        /* \"#utility.yul\":485:494   */\n      dup3\n        /* \"#utility.yul\":481:499   */\n      add\n        /* \"#utility.yul\":473:499   */\n      swap1\n      pop\n        /* \"#utility.yul\":509:580   */\n      tag_49\n        /* \"#utility.yul\":577:578   */\n      0x00\n        /* \"#utility.yul\":566:575   */\n      dup4\n        /* \"#utility.yul\":562:579   */\n      add\n        /* \"#utility.yul\":553:559   */\n      dup5\n        /* \"#utility.yul\":509:580   */\n      tag_19\n      jump\t// in\n    tag_49:\n        /* \"#utility.yul\":365:587   */\n      swap3\n      swap2\n      pop\n      pop\n      jump\t// out\n        /* \"#utility.yul\":593:668   */\n    tag_20:\n        /* \"#utility.yul\":626:632   */\n      0x00\n        /* \"#utility.yul\":659:661   */\n      0x40\n        /* \"#utility.yul\":653:662   */\n      mload\n        /* \"#utility.yul\":643:662   */\n      swap1\n      pop\n        /* \"#utility.yul\":593:668   */\n      swap1\n      jump\t// out\n        /* \"#utility.yul\":674:791   */\n    tag_21:\n        /* \"#utility.yul\":783:784   */\n      0x00\n        /* \"#utility.yul\":780:781   */\n      dup1\n        /* \"#utility.yul\":773:785   */\n      revert\n        /* \"#utility.yul\":797:914   */\n    tag_22:\n        /* \"#utility.yul\":906:907   */\n      0x00\n        /* \"#utility.yul\":903:904   */\n      dup1\n        /* \"#utility.yul\":896:908   */\n      revert\n        /* \"#utility.yul\":920:997   */\n    tag_23:\n        /* \"#utility.yul\":957:964   */\n      0x00\n        /* \"#utility.yul\":986:991   */\n      dup2\n        /* \"#utility.yul\":975:991   */\n      swap1\n      pop\n        /* \"#utility.yul\":920:997   */\n      swap2\n      swap1\n      pop\n      jump\t// out\n        /* \"#utility.yul\":1003:1125   */\n    tag_24:\n        /* \"#utility.yul\":1076:1100   */\n      tag_55\n        /* \"#utility.yul\":1094:1099   */\n      dup2\n        /* \"#utility.yul\":1076:1100   */\n      tag_23\n      jump\t// in\n    tag_55:\n        /* \"#utility.yul\":1069:1074   */\n      dup2\n        /* \"#utility.yul\":1066:1101   */\n      eq\n        /* \"#utility.yul\":1056:1119   */\n      tag_56\n      jumpi\n        /* \"#utility.yul\":1115:1116   */\n      0x00\n        /* \"#utility.yul\":1112:1113   */\n      dup1\n        /* \"#utility.yul\":1105:1117   */\n      revert\n        /* \"#utility.yul\":1056:1119   */\n    tag_56:\n        /* \"#utility.yul\":1003:1125   */\n      pop\n      jump\t// out\n        /* \"#utility.yul\":1131:1270   */\n    tag_25:\n        /* \"#utility.yul\":1177:1182   */\n      0x00\n        /* \"#utility.yul\":1215:1221   */\n      dup2\n        /* \"#utility.yul\":1202:1222   */\n      calldataload\n        /* \"#utility.yul\":1193:1222   */\n      swap1\n      pop\n        /* \"#utility.yul\":1231:1264   */\n      tag_58\n        /* \"#utility.yul\":1258:1263   */\n      dup2\n        /* \"#utility.yul\":1231:1264   */\n      tag_24\n      jump\t// in\n    tag_58:\n        /* \"#utility.yul\":1131:1270   */\n      swap3\n      swap2\n      pop\n      pop\n      jump\t// out\n        /* \"#utility.yul\":1276:1398   */\n    tag_26:\n        /* \"#utility.yul\":1349:1373   */\n      tag_60\n        /* \"#utility.yul\":1367:1372   */\n      dup2\n        /* \"#utility.yul\":1349:1373   */\n      tag_18\n      jump\t// in\n    tag_60:\n        /* \"#utility.yul\":1342:1347   */\n      dup2\n        /* \"#utility.yul\":1339:1374   */\n      eq\n        /* \"#utility.yul\":1329:1392   */\n      tag_61\n      jumpi\n        /* \"#utility.yul\":1388:1389   */\n      0x00\n        /* \"#utility.yul\":1385:1386   */\n      dup1\n        /* \"#utility.yul\":1378:1390   */\n      revert\n        /* \"#utility.yul\":1329:1392   */\n    tag_61:\n        /* \"#utility.yul\":1276:1398   */\n      pop\n      jump\t// out\n        /* \"#utility.yul\":1404:1543   */\n    tag_27:\n        /* \"#utility.yul\":1450:1455   */\n      0x00\n        /* \"#utility.yul\":1488:1494   */\n      dup2\n        /* \"#utility.yul\":1475:1495   */\n      calldataload\n        /* \"#utility.yul\":1466:1495   */\n      swap1\n      pop\n        /* \"#utility.yul\":1504:1537   */\n      tag_63\n        /* \"#utility.yul\":1531:1536   */\n      dup2\n        /* \"#utility.yul\":1504:1537   */\n      tag_26\n      jump\t// in\n    tag_63:\n        /* \"#utility.yul\":1404:1543   */\n      swap3\n      swap2\n      pop\n      pop\n      jump\t// out\n        /* \"#utility.yul\":1549:1639   */\n    tag_28:\n        /* \"#utility.yul\":1583:1590   */\n      0x00\n        /* \"#utility.yul\":1626:1631   */\n      dup2\n        /* \"#utility.yul\":1619:1632   */\n      iszero\n        /* \"#utility.yul\":1612:1633   */\n      iszero\n        /* \"#utility.yul\":1601:1633   */\n      swap1\n      pop\n        /* \"#utility.yul\":1549:1639   */\n      swap2\n      swap1\n      pop\n      jump\t// out\n        /* \"#utility.yul\":1645:1761   */\n    tag_29:\n        /* \"#utility.yul\":1715:1736   */\n      tag_66\n        /* \"#utility.yul\":1730:1735   */\n      dup2\n        /* \"#utility.yul\":1715:1736   */\n      tag_28\n      jump\t// in\n    tag_66:\n        /* \"#utility.yul\":1708:1713   */\n      dup2\n        /* \"#utility.yul\":1705:1737   */\n      eq\n        /* \"#utility.yul\":1695:1755   */\n      tag_67\n      jumpi\n        /* \"#utility.yul\":1751:1752   */\n      0x00\n        /* \"#utility.yul\":1748:1749   */\n      dup1\n        /* \"#utility.yul\":1741:1753   */\n      revert\n        /* \"#utility.yul\":1695:1755   */\n    tag_67:\n        /* \"#utility.yul\":1645:1761   */\n      pop\n      jump\t// out\n        /* \"#utility.yul\":1767:1900   */\n    tag_30:\n        /* \"#utility.yul\":1810:1815   */\n      0x00\n        /* \"#utility.yul\":1848:1854   */\n      dup2\n        /* \"#utility.yul\":1835:1855   */\n      calldataload\n        /* \"#utility.yul\":1826:1855   */\n      swap1\n      pop\n        /* \"#utility.yul\":1864:1894   */\n      tag_69\n        /* \"#utility.yul\":1888:1893   */\n      dup2\n        /* \"#utility.yul\":1864:1894   */\n      tag_29\n      jump\t// in\n    tag_69:\n        /* \"#utility.yul\":1767:1900   */\n      swap3\n      swap2\n      pop\n      pop\n      jump\t// out\n        /* \"#utility.yul\":1906:2023   */\n    tag_31:\n        /* \"#utility.yul\":2015:2016   */\n      0x00\n        /* \"#utility.yul\":2012:2013   */\n      dup1\n        /* \"#utility.yul\":2005:2017   */\n      revert\n        /* \"#utility.yul\":2029:2146   */\n    tag_32:\n        /* \"#utility.yul\":2138:2139   */\n      0x00\n        /* \"#utility.yul\":2135:2136   */\n      dup1\n        /* \"#utility.yul\":2128:2140   */\n      revert\n        /* \"#utility.yul\":2152:2254   */\n    tag_33:\n        /* \"#utility.yul\":2193:2199   */\n      0x00\n        /* \"#utility.yul\":2244:2246   */\n      0x1f\n        /* \"#utility.yul\":2240:2247   */\n      not\n        /* \"#utility.yul\":2235:2237   */\n      0x1f\n        /* \"#utility.yul\":2228:2233   */\n      dup4\n        /* \"#utility.yul\":2224:2238   */\n      add\n        /* \"#utility.yul\":2220:2248   */\n      and\n        /* \"#utility.yul\":2210:2248   */\n      swap1\n      pop\n        /* \"#utility.yul\":2152:2254   */\n      swap2\n      swap1\n      pop\n      jump\t// out\n        /* \"#utility.yul\":2260:2440   */\n    tag_34:\n        /* \"#utility.yul\":2308:2385   */\n      0x4e487b7100000000000000000000000000000000000000000000000000000000\n        /* \"#utility.yul\":2305:2306   */\n      0x00\n        /* \"#utility.yul\":2298:2386   */\n      mstore\n        /* \"#utility.yul\":2405:2409   */\n      0x41\n        /* \"#utility.yul\":2402:2403   */\n      0x04\n        /* \"#utility.yul\":2395:2410   */\n      mstore\n        /* \"#utility.yul\":2429:2433   */\n      0x24\n        /* \"#utility.yul\":2426:2427   */\n      0x00\n        /* \"#utility.yul\":2419:2434   */\n      revert\n        /* \"#utility.yul\":2446:2727   */\n    tag_35:\n        /* \"#utility.yul\":2529:2556   */\n      tag_75\n        /* \"#utility.yul\":2551:2555   */\n      dup3\n        /* \"#utility.yul\":2529:2556   */\n      tag_33\n      jump\t// in\n    tag_75:\n        /* \"#utility.yul\":2521:2527   */\n      dup2\n        /* \"#utility.yul\":2517:2557   */\n      add\n        /* \"#utility.yul\":2659:2665   */\n      dup2\n        /* \"#utility.yul\":2647:2657   */\n      dup2\n        /* \"#utility.yul\":2644:2666   */\n      lt\n        /* \"#utility.yul\":2623:2641   */\n      0xffffffffffffffff\n        /* \"#utility.yul\":2611:2621   */\n      dup3\n        /* \"#utility.yul\":2608:2642   */\n      gt\n        /* \"#utility.yul\":2605:2667   */\n      or\n        /* \"#utility.yul\":2602:2690   */\n      iszero\n      tag_76\n      jumpi\n        /* \"#utility.yul\":2670:2688   */\n      tag_77\n      tag_34\n      jump\t// in\n    tag_77:\n        /* \"#utility.yul\":2602:2690   */\n    tag_76:\n        /* \"#utility.yul\":2710:2720   */\n      dup1\n        /* \"#utility.yul\":2706:2708   */\n      0x40\n        /* \"#utility.yul\":2699:2721   */\n      mstore\n        /* \"#utility.yul\":2489:2727   */\n      pop\n        /* \"#utility.yul\":2446:2727   */\n      pop\n      pop\n      jump\t// out\n        /* \"#utility.yul\":2733:2862   */\n    tag_36:\n        /* \"#utility.yul\":2767:2773   */\n      0x00\n        /* \"#utility.yul\":2794:2814   */\n      tag_79\n      tag_20\n      jump\t// in\n    tag_79:\n        /* \"#utility.yul\":2784:2814   */\n      swap1\n      pop\n        /* \"#utility.yul\":2823:2856   */\n      tag_80\n        /* \"#utility.yul\":2851:2855   */\n      dup3\n        /* \"#utility.yul\":2843:2849   */\n      dup3\n        /* \"#utility.yul\":2823:2856   */\n      tag_35\n      jump\t// in\n    tag_80:\n        /* \"#utility.yul\":2733:2862   */\n      swap2\n      swap1\n      pop\n      jump\t// out\n        /* \"#utility.yul\":2868:3176   */\n    tag_37:\n        /* \"#utility.yul\":2930:2934   */\n      0x00\n        /* \"#utility.yul\":3020:3038   */\n      0xffffffffffffffff\n        /* \"#utility.yul\":3012:3018   */\n      dup3\n        /* \"#utility.yul\":3009:3039   */\n      gt\n        /* \"#utility.yul\":3006:3062   */\n      iszero\n      tag_82\n      jumpi\n        /* \"#utility.yul\":3042:3060   */\n      tag_83\n      tag_34\n      jump\t// in\n    tag_83:\n        /* \"#utility.yul\":3006:3062   */\n    tag_82:\n        /* \"#utility.yul\":3080:3109   */\n      tag_84\n        /* \"#utility.yul\":3102:3108   */\n      dup3\n        /* \"#utility.yul\":3080:3109   */\n      tag_33\n      jump\t// in\n    tag_84:\n        /* \"#utility.yul\":3072:3109   */\n      swap1\n      pop\n        /* \"#utility.yul\":3164:3168   */\n      0x20\n        /* \"#utility.yul\":3158:3162   */\n      dup2\n        /* \"#utility.yul\":3154:3169   */\n      add\n        /* \"#utility.yul\":3146:3169   */\n      swap1\n      pop\n        /* \"#utility.yul\":2868:3176   */\n      swap2\n      swap1\n      pop\n      jump\t// out\n        /* \"#utility.yul\":3182:3328   */\n    tag_38:\n        /* \"#utility.yul\":3279:3285   */\n      dup3\n        /* \"#utility.yul\":3274:3277   */\n      dup2\n        /* \"#utility.yul\":3269:3272   */\n      dup4\n        /* \"#utility.yul\":3256:3286   */\n      calldatacopy\n        /* \"#utility.yul\":3320:3321   */\n      0x00\n        /* \"#utility.yul\":3311:3317   */\n      dup4\n        /* \"#utility.yul\":3306:3309   */\n      dup4\n        /* \"#utility.yul\":3302:3318   */\n      add\n        /* \"#utility.yul\":3295:3322   */\n      mstore\n        /* \"#utility.yul\":3182:3328   */\n      pop\n      pop\n      pop\n      jump\t// out\n        /* \"#utility.yul\":3334:3759   */\n    tag_39:\n        /* \"#utility.yul\":3412:3417   */\n      0x00\n        /* \"#utility.yul\":3437:3503   */\n      tag_87\n        /* \"#utility.yul\":3453:3502   */\n      tag_88\n        /* \"#utility.yul\":3495:3501   */\n      dup5\n        /* \"#utility.yul\":3453:3502   */\n      tag_37\n      jump\t// in\n    tag_88:\n        /* \"#utility.yul\":3437:3503   */\n      tag_36\n      jump\t// in\n    tag_87:\n        /* \"#utility.yul\":3428:3503   */\n      swap1\n      pop\n        /* \"#utility.yul\":3526:3532   */\n      dup3\n        /* \"#utility.yul\":3519:3524   */\n      dup2\n        /* \"#utility.yul\":3512:3533   */\n      mstore\n        /* \"#utility.yul\":3564:3568   */\n      0x20\n        /* \"#utility.yul\":3557:3562   */\n      dup2\n        /* \"#utility.yul\":3553:3569   */\n      add\n        /* \"#utility.yul\":3602:3605   */\n      dup5\n        /* \"#utility.yul\":3593:3599   */\n      dup5\n        /* \"#utility.yul\":3588:3591   */\n      dup5\n        /* \"#utility.yul\":3584:3600   */\n      add\n        /* \"#utility.yul\":3581:3606   */\n      gt\n        /* \"#utility.yul\":3578:3690   */\n      iszero\n      tag_89\n      jumpi\n        /* \"#utility.yul\":3609:3688   */\n      tag_90\n      tag_32\n      jump\t// in\n    tag_90:\n        /* \"#utility.yul\":3578:3690   */\n    tag_89:\n        /* \"#utility.yul\":3699:3753   */\n      tag_91\n        /* \"#utility.yul\":3746:3752   */\n      dup5\n        /* \"#utility.yul\":3741:3744   */\n      dup3\n        /* \"#utility.yul\":3736:3739   */\n      dup6\n        /* \"#utility.yul\":3699:3753   */\n      tag_38\n      jump\t// in\n    tag_91:\n        /* \"#utility.yul\":3418:3759   */\n      pop\n        /* \"#utility.yul\":3334:3759   */\n      swap4\n      swap3\n      pop\n      pop\n      pop\n      jump\t// out\n        /* \"#utility.yul\":3779:4119   */\n    tag_40:\n        /* \"#utility.yul\":3835:3840   */\n      0x00\n        /* \"#utility.yul\":3884:3887   */\n      dup3\n        /* \"#utility.yul\":3877:3881   */\n      0x1f\n        /* \"#utility.yul\":3869:3875   */\n      dup4\n        /* \"#utility.yul\":3865:3882   */\n      add\n        /* \"#utility.yul\":3861:3888   */\n      slt\n        /* \"#utility.yul\":3851:3973   */\n      tag_93\n      jumpi\n        /* \"#utility.yul\":3892:3971   */\n      tag_94\n      tag_31\n      jump\t// in\n    tag_94:\n        /* \"#utility.yul\":3851:3973   */\n    tag_93:\n        /* \"#utility.yul\":4009:4015   */\n      dup2\n        /* \"#utility.yul\":3996:4016   */\n      calldataload\n        /* \"#utility.yul\":4034:4113   */\n      tag_95\n        /* \"#utility.yul\":4109:4112   */\n      dup5\n        /* \"#utility.yul\":4101:4107   */\n      dup3\n        /* \"#utility.yul\":4094:4098   */\n      0x20\n        /* \"#utility.yul\":4086:4092   */\n      dup7\n        /* \"#utility.yul\":4082:4099   */\n      add\n        /* \"#utility.yul\":4034:4113   */\n      tag_39\n      jump\t// in\n    tag_95:\n        /* \"#utility.yul\":4025:4113   */\n      swap2\n      pop\n        /* \"#utility.yul\":3841:4119   */\n      pop\n        /* \"#utility.yul\":3779:4119   */\n      swap3\n      swap2\n      pop\n      pop\n      jump\t// out\n        /* \"#utility.yul\":4125:5356   */\n    tag_11:\n        /* \"#utility.yul\":4236:4242   */\n      0x00\n        /* \"#utility.yul\":4244:4250   */\n      dup1\n        /* \"#utility.yul\":4252:4258   */\n      0x00\n        /* \"#utility.yul\":4260:4266   */\n      dup1\n        /* \"#utility.yul\":4268:4274   */\n      0x00\n        /* \"#utility.yul\":4276:4282   */\n      dup1\n        /* \"#utility.yul\":4325:4328   */\n      0xc0\n        /* \"#utility.yul\":4313:4322   */\n      dup8\n        /* \"#utility.yul\":4304:4311   */\n      dup10\n        /* \"#utility.yul\":4300:4323   */\n      sub\n        /* \"#utility.yul\":4296:4329   */\n      slt\n        /* \"#utility.yul\":4293:4413   */\n      iszero\n      tag_97\n      jumpi\n        /* \"#utility.yul\":4332:4411   */\n      tag_98\n      tag_21\n      jump\t// in\n    tag_98:\n        /* \"#utility.yul\":4293:4413   */\n    tag_97:\n        /* \"#utility.yul\":4452:4453   */\n      0x00\n        /* \"#utility.yul\":4477:4530   */\n      tag_99\n        /* \"#utility.yul\":4522:4529   */\n      dup10\n        /* \"#utility.yul\":4513:4519   */\n      dup3\n        /* \"#utility.yul\":4502:4511   */\n      dup11\n        /* \"#utility.yul\":4498:4520   */\n      add\n        /* \"#utility.yul\":4477:4530   */\n      tag_25\n      jump\t// in\n    tag_99:\n        /* \"#utility.yul\":4467:4530   */\n      swap7\n      pop\n        /* \"#utility.yul\":4423:4540   */\n      pop\n        /* \"#utility.yul\":4579:4581   */\n      0x20\n        /* \"#utility.yul\":4605:4658   */\n      tag_100\n        /* \"#utility.yul\":4650:4657   */\n      dup10\n        /* \"#utility.yul\":4641:4647   */\n      dup3\n        /* \"#utility.yul\":4630:4639   */\n      dup11\n        /* \"#utility.yul\":4626:4648   */\n      add\n        /* \"#utility.yul\":4605:4658   */\n      tag_25\n      jump\t// in\n    tag_100:\n        /* \"#utility.yul\":4595:4658   */\n      swap6\n      pop\n        /* \"#utility.yul\":4550:4668   */\n      pop\n        /* \"#utility.yul\":4707:4709   */\n      0x40\n        /* \"#utility.yul\":4733:4786   */\n      tag_101\n        /* \"#utility.yul\":4778:4785   */\n      dup10\n        /* \"#utility.yul\":4769:4775   */\n      dup3\n        /* \"#utility.yul\":4758:4767   */\n      dup11\n        /* \"#utility.yul\":4754:4776   */\n      add\n        /* \"#utility.yul\":4733:4786   */\n      tag_25\n      jump\t// in\n    tag_101:\n        /* \"#utility.yul\":4723:4786   */\n      swap5\n      pop\n        /* \"#utility.yul\":4678:4796   */\n      pop\n        /* \"#utility.yul\":4835:4837   */\n      0x60\n        /* \"#utility.yul\":4861:4914   */\n      tag_102\n        /* \"#utility.yul\":4906:4913   */\n      dup10\n        /* \"#utility.yul\":4897:4903   */\n      dup3\n        /* \"#utility.yul\":4886:4895   */\n      dup11\n        /* \"#utility.yul\":4882:4904   */\n      add\n        /* \"#utility.yul\":4861:4914   */\n      tag_27\n      jump\t// in\n    tag_102:\n        /* \"#utility.yul\":4851:4914   */\n      swap4\n      pop\n        /* \"#utility.yul\":4806:4924   */\n      pop\n        /* \"#utility.yul\":4963:4966   */\n      0x80\n        /* \"#utility.yul\":4990:5040   */\n      tag_103\n        /* \"#utility.yul\":5032:5039   */\n      dup10\n        /* \"#utility.yul\":5023:5029   */\n      dup3\n        /* \"#utility.yul\":5012:5021   */\n      dup11\n        /* \"#utility.yul\":5008:5030   */\n      add\n        /* \"#utility.yul\":4990:5040   */\n      tag_30\n      jump\t// in\n    tag_103:\n        /* \"#utility.yul\":4980:5040   */\n      swap3\n      pop\n        /* \"#utility.yul\":4934:5050   */\n      pop\n        /* \"#utility.yul\":5117:5120   */\n      0xa0\n        /* \"#utility.yul\":5106:5115   */\n      dup8\n        /* \"#utility.yul\":5102:5121   */\n      add\n        /* \"#utility.yul\":5089:5122   */\n      calldataload\n        /* \"#utility.yul\":5149:5167   */\n      0xffffffffffffffff\n        /* \"#utility.yul\":5141:5147   */\n      dup2\n        /* \"#utility.yul\":5138:5168   */\n      gt\n        /* \"#utility.yul\":5135:5252   */\n      iszero\n      tag_104\n      jumpi\n        /* \"#utility.yul\":5171:5250   */\n      tag_105\n      tag_22\n      jump\t// in\n    tag_105:\n        /* \"#utility.yul\":5135:5252   */\n    tag_104:\n        /* \"#utility.yul\":5276:5339   */\n      tag_106\n        /* \"#utility.yul\":5331:5338   */\n      dup10\n        /* \"#utility.yul\":5322:5328   */\n      dup3\n        /* \"#utility.yul\":5311:5320   */\n      dup11\n        /* \"#utility.yul\":5307:5329   */\n      add\n        /* \"#utility.yul\":5276:5339   */\n      tag_40\n      jump\t// in\n    tag_106:\n        /* \"#utility.yul\":5266:5339   */\n      swap2\n      pop\n        /* \"#utility.yul\":5060:5349   */\n      pop\n        /* \"#utility.yul\":4125:5356   */\n      swap3\n      swap6\n      pop\n      swap3\n      swap6\n      pop\n      swap3\n      swap6\n      jump\t// out\n        /* \"#utility.yul\":5362:5480   */\n    tag_41:\n        /* \"#utility.yul\":5449:5473   */\n      tag_108\n        /* \"#utility.yul\":5467:5472   */\n      dup2\n        /* \"#utility.yul\":5449:5473   */\n      tag_23\n      jump\t// in\n    tag_108:\n        /* \"#utility.yul\":5444:5447   */\n      dup3\n        /* \"#utility.yul\":5437:5474   */\n      mstore\n        /* \"#utility.yul\":5362:5480   */\n      pop\n      pop\n      jump\t// out\n        /* \"#utility.yul\":5486:5708   */\n    tag_14:\n        /* \"#utility.yul\":5579:5583   */\n      0x00\n        /* \"#utility.yul\":5617:5619   */\n      0x20\n        /* \"#utility.yul\":5606:5615   */\n      dup3\n        /* \"#utility.yul\":5602:5620   */\n      add\n        /* \"#utility.yul\":5594:5620   */\n      swap1\n      pop\n        /* \"#utility.yul\":5630:5701   */\n      tag_110\n        /* \"#utility.yul\":5698:5699   */\n      0x00\n        /* \"#utility.yul\":5687:5696   */\n      dup4\n        /* \"#utility.yul\":5683:5700   */\n      add\n        /* \"#utility.yul\":5674:5680   */\n      dup5\n        /* \"#utility.yul\":5630:5701   */\n      tag_41\n      jump\t// in\n    tag_110:\n        /* \"#utility.yul\":5486:5708   */\n      swap3\n      swap2\n      pop\n      pop\n      jump\t// out\n\n    auxdata: 0xa26469706673582212200fc32303b44be1aee701043b496f8af571b9cc55d7c1f58c81a654e87a80e54164736f6c63430008120033\n}\n",
				"bytecode": {
					"linkReferences": {},
					"object": "608060405234801561001057600080fd5b506103f6806100206000396000f3fe608060405234801561001057600080fd5b50600436106100365760003560e01c8063bedfc5a11461003b578063cdc1b06f14610059575b600080fd5b610043610089565b60405161005091906100de565b60405180910390f35b610073600480360381019061006e91906102ed565b610091565b60405161008091906103a5565b60405180910390f35b600033905090565b60009695505050505050565b600073ffffffffffffffffffffffffffffffffffffffff82169050919050565b60006100c88261009d565b9050919050565b6100d8816100bd565b82525050565b60006020820190506100f360008301846100cf565b92915050565b6000604051905090565b600080fd5b600080fd5b6000819050919050565b6101208161010d565b811461012b57600080fd5b50565b60008135905061013d81610117565b92915050565b61014c816100bd565b811461015757600080fd5b50565b60008135905061016981610143565b92915050565b60008115159050919050565b6101848161016f565b811461018f57600080fd5b50565b6000813590506101a18161017b565b92915050565b600080fd5b600080fd5b6000601f19601f8301169050919050565b7f4e487b7100000000000000000000000000000000000000000000000000000000600052604160045260246000fd5b6101fa826101b1565b810181811067ffffffffffffffff82111715610219576102186101c2565b5b80604052505050565b600061022c6100f9565b905061023882826101f1565b919050565b600067ffffffffffffffff821115610258576102576101c2565b5b610261826101b1565b9050602081019050919050565b82818337600083830152505050565b600061029061028b8461023d565b610222565b9050828152602081018484840111156102ac576102ab6101ac565b5b6102b784828561026e565b509392505050565b600082601f8301126102d4576102d36101a7565b5b81356102e484826020860161027d565b91505092915050565b60008060008060008060c0878903121561030a57610309610103565b5b600061031889828a0161012e565b965050602061032989828a0161012e565b955050604061033a89828a0161012e565b945050606061034b89828a0161015a565b935050608061035c89828a01610192565b92505060a087013567ffffffffffffffff81111561037d5761037c610108565b5b61038989828a016102bf565b9150509295509295509295565b61039f8161010d565b82525050565b60006020820190506103ba6000830184610396565b9291505056fea26469706673582212200fc32303b44be1aee701043b496f8af571b9cc55d7c1f58c81a654e87a80e54164736f6c63430008120033",
					"opcodes": "PUSH1 0x80 PUSH1 0x40 MSTORE CALLVALUE DUP1 ISZERO PUSH2 0x10 JUMPI PUSH1 0x0 DUP1 REVERT JUMPDEST POP PUSH2 0x3F6 DUP1 PUSH2 0x20 PUSH1 0x0 CODECOPY PUSH1 0x0 RETURN INVALID PUSH1 0x80 PUSH1 0x40 MSTORE CALLVALUE DUP1 ISZERO PUSH2 0x10 JUMPI PUSH1 0x0 DUP1 REVERT JUMPDEST POP PUSH1 0x4 CALLDATASIZE LT PUSH2 0x36 JUMPI PUSH1 0x0 CALLDATALOAD PUSH1 0xE0 SHR DUP1 PUSH4 0xBEDFC5A1 EQ PUSH2 0x3B JUMPI DUP1 PUSH4 0xCDC1B06F EQ PUSH2 0x59 JUMPI JUMPDEST PUSH1 0x0 DUP1 REVERT JUMPDEST PUSH2 0x43 PUSH2 0x89 JUMP JUMPDEST PUSH1 0x40 MLOAD PUSH2 0x50 SWAP2 SWAP1 PUSH2 0xDE JUMP JUMPDEST PUSH1 0x40 MLOAD DUP1 SWAP2 SUB SWAP1 RETURN JUMPDEST PUSH2 0x73 PUSH1 0x4 DUP1 CALLDATASIZE SUB DUP2 ADD SWAP1 PUSH2 0x6E SWAP2 SWAP1 PUSH2 0x2ED JUMP JUMPDEST PUSH2 0x91 JUMP JUMPDEST PUSH1 0x40 MLOAD PUSH2 0x80 SWAP2 SWAP1 PUSH2 0x3A5 JUMP JUMPDEST PUSH1 0x40 MLOAD DUP1 SWAP2 SUB SWAP1 RETURN JUMPDEST PUSH1 0x0 CALLER SWAP1 POP SWAP1 JUMP JUMPDEST PUSH1 0x0 SWAP7 SWAP6 POP POP POP POP POP POP JUMP JUMPDEST PUSH1 0x0 PUSH20 0xFFFFFFFFFFFFFFFFFFFFFFFFFFFFFFFFFFFFFFFF DUP3 AND SWAP1 POP SWAP2 SWAP1 POP JUMP JUMPDEST PUSH1 0x0 PUSH2 0xC8 DUP3 PUSH2 0x9D JUMP JUMPDEST SWAP1 POP SWAP2 SWAP1 POP JUMP JUMPDEST PUSH2 0xD8 DUP2 PUSH2 0xBD JUMP JUMPDEST DUP3 MSTORE POP POP JUMP JUMPDEST PUSH1 0x0 PUSH1 0x20 DUP3 ADD SWAP1 POP PUSH2 0xF3 PUSH1 0x0 DUP4 ADD DUP5 PUSH2 0xCF JUMP JUMPDEST SWAP3 SWAP2 POP POP JUMP JUMPDEST PUSH1 0x0 PUSH1 0x40 MLOAD SWAP1 POP SWAP1 JUMP JUMPDEST PUSH1 0x0 DUP1 REVERT JUMPDEST PUSH1 0x0 DUP1 REVERT JUMPDEST PUSH1 0x0 DUP2 SWAP1 POP SWAP2 SWAP1 POP JUMP JUMPDEST PUSH2 0x120 DUP2 PUSH2 0x10D JUMP JUMPDEST DUP2 EQ PUSH2 0x12B JUMPI PUSH1 0x0 DUP1 REVERT JUMPDEST POP JUMP JUMPDEST PUSH1 0x0 DUP2 CALLDATALOAD SWAP1 POP PUSH2 0x13D DUP2 PUSH2 0x117 JUMP JUMPDEST SWAP3 SWAP2 POP POP JUMP JUMPDEST PUSH2 0x14C DUP2 PUSH2 0xBD JUMP JUMPDEST DUP2 EQ PUSH2 0x157 JUMPI PUSH1 0x0 DUP1 REVERT JUMPDEST POP JUMP JUMPDEST PUSH1 0x0 DUP2 CALLDATALOAD SWAP1 POP PUSH2 0x169 DUP2 PUSH2 0x143 JUMP JUMPDEST SWAP3 SWAP2 POP POP JUMP JUMPDEST PUSH1 0x0 DUP2 ISZERO ISZERO SWAP1 POP SWAP2 SWAP1 POP JUMP JUMPDEST PUSH2 0x184 DUP2 PUSH2 0x16F JUMP JUMPDEST DUP2 EQ PUSH2 0x18F JUMPI PUSH1 0x0 DUP1 REVERT JUMPDEST POP JUMP JUMPDEST PUSH1 0x0 DUP2 CALLDATALOAD SWAP1 POP PUSH2 0x1A1 DUP2 PUSH2 0x17B JUMP JUMPDEST SWAP3 SWAP2 POP POP JUMP JUMPDEST PUSH1 0x0 DUP1 REVERT JUMPDEST PUSH1 0x0 DUP1 REVERT JUMPDEST PUSH1 0x0 PUSH1 0x1F NOT PUSH1 0x1F DUP4 ADD AND SWAP1 POP SWAP2 SWAP1 POP JUMP JUMPDEST PUSH32 0x4E487B7100000000000000000000000000000000000000000000000000000000 PUSH1 0x0 MSTORE PUSH1 0x41 PUSH1 0x4 MSTORE PUSH1 0x24 PUSH1 0x0 REVERT JUMPDEST PUSH2 0x1FA DUP3 PUSH2 0x1B1 JUMP JUMPDEST DUP2 ADD DUP2 DUP2 LT PUSH8 0xFFFFFFFFFFFFFFFF DUP3 GT OR ISZERO PUSH2 0x219 JUMPI PUSH2 0x218 PUSH2 0x1C2 JUMP JUMPDEST JUMPDEST DUP1 PUSH1 0x40 MSTORE POP POP POP JUMP JUMPDEST PUSH1 0x0 PUSH2 0x22C PUSH2 0xF9 JUMP JUMPDEST SWAP1 POP PUSH2 0x238 DUP3 DUP3 PUSH2 0x1F1 JUMP JUMPDEST SWAP2 SWAP1 POP JUMP JUMPDEST PUSH1 0x0 PUSH8 0xFFFFFFFFFFFFFFFF DUP3 GT ISZERO PUSH2 0x258 JUMPI PUSH2 0x257 PUSH2 0x1C2 JUMP JUMPDEST JUMPDEST PUSH2 0x261 DUP3 PUSH2 0x1B1 JUMP JUMPDEST SWAP1 POP PUSH1 0x20 DUP2 ADD SWAP1 POP SWAP2 SWAP1 POP JUMP JUMPDEST DUP3 DUP2 DUP4 CALLDATACOPY PUSH1 0x0 DUP4 DUP4 ADD MSTORE POP POP POP JUMP JUMPDEST PUSH1 0x0 PUSH2 0x290 PUSH2 0x28B DUP5 PUSH2 0x23D JUMP JUMPDEST PUSH2 0x222 JUMP JUMPDEST SWAP1 POP DUP3 DUP2 MSTORE PUSH1 0x20 DUP2 ADD DUP5 DUP5 DUP5 ADD GT ISZERO PUSH2 0x2AC JUMPI PUSH2 0x2AB PUSH2 0x1AC JUMP JUMPDEST JUMPDEST PUSH2 0x2B7 DUP5 DUP3 DUP6 PUSH2 0x26E JUMP JUMPDEST POP SWAP4 SWAP3 POP POP POP JUMP JUMPDEST PUSH1 0x0 DUP3 PUSH1 0x1F DUP4 ADD SLT PUSH2 0x2D4 JUMPI PUSH2 0x2D3 PUSH2 0x1A7 JUMP JUMPDEST JUMPDEST DUP2 CALLDATALOAD PUSH2 0x2E4 DUP5 DUP3 PUSH1 0x20 DUP7 ADD PUSH2 0x27D JUMP JUMPDEST SWAP2 POP POP SWAP3 SWAP2 POP POP JUMP JUMPDEST PUSH1 0x0 DUP1 PUSH1 0x0 DUP1 PUSH1 0x0 DUP1 PUSH1 0xC0 DUP8 DUP10 SUB SLT ISZERO PUSH2 0x30A JUMPI PUSH2 0x309 PUSH2 0x103 JUMP JUMPDEST JUMPDEST PUSH1 0x0 PUSH2 0x318 DUP10 DUP3 DUP11 ADD PUSH2 0x12E JUMP JUMPDEST SWAP7 POP POP PUSH1 0x20 PUSH2 0x329 DUP10 DUP3 DUP11 ADD PUSH2 0x12E JUMP JUMPDEST SWAP6 POP POP PUSH1 0x40 PUSH2 0x33A DUP10 DUP3 DUP11 ADD PUSH2 0x12E JUMP JUMPDEST SWAP5 POP POP PUSH1 0x60 PUSH2 0x34B DUP10 DUP3 DUP11 ADD PUSH2 0x15A JUMP JUMPDEST SWAP4 POP POP PUSH1 0x80 PUSH2 0x35C DUP10 DUP3 DUP11 ADD PUSH2 0x192 JUMP JUMPDEST SWAP3 POP POP PUSH1 0xA0 DUP8 ADD CALLDATALOAD PUSH8 0xFFFFFFFFFFFFFFFF DUP2 GT ISZERO PUSH2 0x37D JUMPI PUSH2 0x37C PUSH2 0x108 JUMP JUMPDEST JUMPDEST PUSH2 0x389 DUP10 DUP3 DUP11 ADD PUSH2 0x2BF JUMP JUMPDEST SWAP2 POP POP SWAP3 SWAP6 POP SWAP3 SWAP6 POP SWAP3 SWAP6 JUMP JUMPDEST PUSH2 0x39F DUP2 PUSH2 0x10D JUMP JUMPDEST DUP3 MSTORE POP POP JUMP JUMPDEST PUSH1 0x0 PUSH1 0x20 DUP3 ADD SWAP1 POP PUSH2 0x3BA PUSH1 0x0 DUP4 ADD DUP5 PUSH2 0x396 JUMP JUMPDEST SWAP3 SWAP2 POP POP JUMP INVALID LOG2 PUSH5 0x6970667358 0x22 SLT KECCAK256 0xF 0xC3 0x23 SUB 0xB4 0x4B 0xE1 0xAE 0xE7 ADD DIV EXTCODESIZE 0x49 PUSH16 0x8AF571B9CC55D7C1F58C81A654E87A80 0xE5 COINBASE PUSH5 0x736F6C6343 STOP ADDMOD SLT STOP CALLER "
				},
				"gasEstimates": {
					"creation": {
						"codeDepositCost": "202800",
						"executionCost": "245",
						"totalCost": "203045"
					},
					"external": {
						"SecondFunctionContract(uint256,uint256,uint256,address,bool,string)": "infinite",
						"callFunction()": "363"
					}
				},
				"methodIdentifiers": {
					"SecondFunctionContract(uint256,uint256,uint256,address,bool,string)": "cdc1b06f",
					"callFunction()": "bedfc5a1"
				}
			},
			"storageLayout": {
				"storage": [],
				"types": null
			},
			"userdoc": {
				"kind": "user",
				"methods": {},
				"version": 1
			}
		}
	}
}