{
	"enum.sol": {
		"enum11": {
			"abi": [
				{
					"inputs": [],
					"name": "getChoice",
					"outputs": [
						{
							"internalType": "enum enum11.FreshJuice",
							"name": "",
							"type": "uint8"
						}
					],
					"stateMutability": "view",
					"type": "function"
				},
				{
					"inputs": [],
					"name": "setLarge",
					"outputs": [],
					"stateMutability": "nonpayable",
					"type": "function"
				},
				{
					"inputs": [],
					"name": "setSmall",
					"outputs": [],
					"stateMutability": "nonpayable",
					"type": "function"
				}
			],
			"devdoc": {
				"kind": "dev",
				"methods": {},
				"version": 1
			},
			"evm": {
				"assembly": "    /* \"enum.sol\":60:560  contract enum11 {... */\n  mstore(0x40, 0x80)\n  callvalue\n  dup1\n  iszero\n  tag_1\n  jumpi\n  0x00\n  dup1\n  revert\ntag_1:\n  pop\n  dataSize(sub_0)\n  dup1\n  dataOffset(sub_0)\n  0x00\n  codecopy\n  0x00\n  return\nstop\n\nsub_0: assembly {\n        /* \"enum.sol\":60:560  contract enum11 {... */\n      mstore(0x40, 0x80)\n      callvalue\n      dup1\n      iszero\n      tag_1\n      jumpi\n      0x00\n      dup1\n      revert\n    tag_1:\n      pop\n      jumpi(tag_2, lt(calldatasize, 0x04))\n      shr(0xe0, calldataload(0x00))\n      dup1\n      0x67cb61b6\n      eq\n      tag_3\n      jumpi\n      dup1\n      0x694ebe4f\n      eq\n      tag_4\n      jumpi\n      dup1\n      0x91ff2c86\n      eq\n      tag_5\n      jumpi\n    tag_2:\n      0x00\n      dup1\n      revert\n        /* \"enum.sol\":363:448  function getChoice() public view returns (FreshJuice){... */\n    tag_3:\n      tag_6\n      tag_7\n      jump\t// in\n    tag_6:\n      mload(0x40)\n      tag_8\n      swap2\n      swap1\n      tag_9\n      jump\t// in\n    tag_8:\n      mload(0x40)\n      dup1\n      swap2\n      sub\n      swap1\n      return\n        /* \"enum.sol\":207:277  function setLarge() public{... */\n    tag_4:\n      tag_10\n      tag_11\n      jump\t// in\n    tag_10:\n      stop\n        /* \"enum.sol\":285:355  function setSmall() public{... */\n    tag_5:\n      tag_12\n      tag_13\n      jump\t// in\n    tag_12:\n      stop\n        /* \"enum.sol\":363:448  function getChoice() public view returns (FreshJuice){... */\n    tag_7:\n        /* \"enum.sol\":405:415  FreshJuice */\n      0x00\n        /* \"enum.sol\":434:440  choice */\n      dup1\n      0x00\n      swap1\n      sload\n      swap1\n      0x0100\n      exp\n      swap1\n      div\n      0xff\n      and\n        /* \"enum.sol\":427:440  return choice */\n      swap1\n      pop\n        /* \"enum.sol\":363:448  function getChoice() public view returns (FreshJuice){... */\n      swap1\n      jump\t// out\n        /* \"enum.sol\":207:277  function setLarge() public{... */\n    tag_11:\n        /* \"enum.sol\":253:269  FreshJuice.large */\n      0x02\n        /* \"enum.sol\":244:250  choice */\n      0x00\n      dup1\n        /* \"enum.sol\":244:269  choice = FreshJuice.large */\n      0x0100\n      exp\n      dup2\n      sload\n      dup2\n      0xff\n      mul\n      not\n      and\n      swap1\n      dup4\n      0x02\n      dup2\n      gt\n      iszero\n      tag_16\n      jumpi\n      tag_17\n      tag_18\n      jump\t// in\n    tag_17:\n    tag_16:\n      mul\n      or\n      swap1\n      sstore\n      pop\n        /* \"enum.sol\":207:277  function setLarge() public{... */\n      jump\t// out\n        /* \"enum.sol\":285:355  function setSmall() public{... */\n    tag_13:\n        /* \"enum.sol\":331:347  FreshJuice.small */\n      0x00\n        /* \"enum.sol\":322:328  choice */\n      dup1\n      0x00\n        /* \"enum.sol\":322:347  choice = FreshJuice.small */\n      0x0100\n      exp\n      dup2\n      sload\n      dup2\n      0xff\n      mul\n      not\n      and\n      swap1\n      dup4\n      0x02\n      dup2\n      gt\n      iszero\n      tag_20\n      jumpi\n      tag_21\n      tag_18\n      jump\t// in\n    tag_21:\n    tag_20:\n      mul\n      or\n      swap1\n      sstore\n      pop\n        /* \"enum.sol\":285:355  function setSmall() public{... */\n      jump\t// out\n        /* \"#utility.yul\":7:187   */\n    tag_18:\n        /* \"#utility.yul\":55:132   */\n      0x4e487b7100000000000000000000000000000000000000000000000000000000\n        /* \"#utility.yul\":52:53   */\n      0x00\n        /* \"#utility.yul\":45:133   */\n      mstore\n        /* \"#utility.yul\":152:156   */\n      0x21\n        /* \"#utility.yul\":149:150   */\n      0x04\n        /* \"#utility.yul\":142:157   */\n      mstore\n        /* \"#utility.yul\":176:180   */\n      0x24\n        /* \"#utility.yul\":173:174   */\n      0x00\n        /* \"#utility.yul\":166:181   */\n      revert\n        /* \"#utility.yul\":193:310   */\n    tag_22:\n        /* \"#utility.yul\":278:279   */\n      0x03\n        /* \"#utility.yul\":271:276   */\n      dup2\n        /* \"#utility.yul\":268:280   */\n      lt\n        /* \"#utility.yul\":258:304   */\n      tag_29\n      jumpi\n        /* \"#utility.yul\":284:302   */\n      tag_30\n      tag_18\n      jump\t// in\n    tag_30:\n        /* \"#utility.yul\":258:304   */\n    tag_29:\n        /* \"#utility.yul\":193:310   */\n      pop\n      jump\t// out\n        /* \"#utility.yul\":316:451   */\n    tag_23:\n        /* \"#utility.yul\":365:372   */\n      0x00\n        /* \"#utility.yul\":394:399   */\n      dup2\n        /* \"#utility.yul\":383:399   */\n      swap1\n      pop\n        /* \"#utility.yul\":400:445   */\n      tag_32\n        /* \"#utility.yul\":439:444   */\n      dup3\n        /* \"#utility.yul\":400:445   */\n      tag_22\n      jump\t// in\n    tag_32:\n        /* \"#utility.yul\":316:451   */\n      swap2\n      swap1\n      pop\n      jump\t// out\n        /* \"#utility.yul\":457:592   */\n    tag_24:\n        /* \"#utility.yul\":517:526   */\n      0x00\n        /* \"#utility.yul\":550:586   */\n      tag_34\n        /* \"#utility.yul\":580:585   */\n      dup3\n        /* \"#utility.yul\":550:586   */\n      tag_23\n      jump\t// in\n    tag_34:\n        /* \"#utility.yul\":537:586   */\n      swap1\n      pop\n        /* \"#utility.yul\":457:592   */\n      swap2\n      swap1\n      pop\n      jump\t// out\n        /* \"#utility.yul\":598:749   */\n    tag_25:\n        /* \"#utility.yul\":695:742   */\n      tag_36\n        /* \"#utility.yul\":736:741   */\n      dup2\n        /* \"#utility.yul\":695:742   */\n      tag_24\n      jump\t// in\n    tag_36:\n        /* \"#utility.yul\":690:693   */\n      dup3\n        /* \"#utility.yul\":683:743   */\n      mstore\n        /* \"#utility.yul\":598:749   */\n      pop\n      pop\n      jump\t// out\n        /* \"#utility.yul\":755:997   */\n    tag_9:\n        /* \"#utility.yul\":858:862   */\n      0x00\n        /* \"#utility.yul\":896:898   */\n      0x20\n        /* \"#utility.yul\":885:894   */\n      dup3\n        /* \"#utility.yul\":881:899   */\n      add\n        /* \"#utility.yul\":873:899   */\n      swap1\n      pop\n        /* \"#utility.yul\":909:990   */\n      tag_38\n        /* \"#utility.yul\":987:988   */\n      0x00\n        /* \"#utility.yul\":976:985   */\n      dup4\n        /* \"#utility.yul\":972:989   */\n      add\n        /* \"#utility.yul\":963:969   */\n      dup5\n        /* \"#utility.yul\":909:990   */\n      tag_25\n      jump\t// in\n    tag_38:\n        /* \"#utility.yul\":755:997   */\n      swap3\n      swap2\n      pop\n      pop\n      jump\t// out\n\n    auxdata: 0xa264697066735822122070307fab2ad0b20abc4f3ea5b6a974cdb9c80bed4c1af84971278520541c512c64736f6c63430008120033\n}\n",
				"bytecode": {
					"linkReferences": {},
					"object": "608060405234801561001057600080fd5b506101ae806100206000396000f3fe608060405234801561001057600080fd5b50600436106100415760003560e01c806367cb61b614610046578063694ebe4f1461006457806391ff2c861461006e575b600080fd5b61004e610078565b60405161005b919061015d565b60405180910390f35b61006c61008e565b005b6100766100ba565b005b60008060009054906101000a900460ff16905090565b60026000806101000a81548160ff021916908360028111156100b3576100b26100e6565b5b0217905550565b60008060006101000a81548160ff021916908360028111156100df576100de6100e6565b5b0217905550565b7f4e487b7100000000000000000000000000000000000000000000000000000000600052602160045260246000fd5b60038110610126576101256100e6565b5b50565b600081905061013782610115565b919050565b600061014782610129565b9050919050565b6101578161013c565b82525050565b6000602082019050610172600083018461014e565b9291505056fea264697066735822122070307fab2ad0b20abc4f3ea5b6a974cdb9c80bed4c1af84971278520541c512c64736f6c63430008120033",
					"opcodes": "PUSH1 0x80 PUSH1 0x40 MSTORE CALLVALUE DUP1 ISZERO PUSH2 0x10 JUMPI PUSH1 0x0 DUP1 REVERT JUMPDEST POP PUSH2 0x1AE DUP1 PUSH2 0x20 PUSH1 0x0 CODECOPY PUSH1 0x0 RETURN INVALID PUSH1 0x80 PUSH1 0x40 MSTORE CALLVALUE DUP1 ISZERO PUSH2 0x10 JUMPI PUSH1 0x0 DUP1 REVERT JUMPDEST POP PUSH1 0x4 CALLDATASIZE LT PUSH2 0x41 JUMPI PUSH1 0x0 CALLDATALOAD PUSH1 0xE0 SHR DUP1 PUSH4 0x67CB61B6 EQ PUSH2 0x46 JUMPI DUP1 PUSH4 0x694EBE4F EQ PUSH2 0x64 JUMPI DUP1 PUSH4 0x91FF2C86 EQ PUSH2 0x6E JUMPI JUMPDEST PUSH1 0x0 DUP1 REVERT JUMPDEST PUSH2 0x4E PUSH2 0x78 JUMP JUMPDEST PUSH1 0x40 MLOAD PUSH2 0x5B SWAP2 SWAP1 PUSH2 0x15D JUMP JUMPDEST PUSH1 0x40 MLOAD DUP1 SWAP2 SUB SWAP1 RETURN JUMPDEST PUSH2 0x6C PUSH2 0x8E JUMP JUMPDEST STOP JUMPDEST PUSH2 0x76 PUSH2 0xBA JUMP JUMPDEST STOP JUMPDEST PUSH1 0x0 DUP1 PUSH1 0x0 SWAP1 SLOAD SWAP1 PUSH2 0x100 EXP SWAP1 DIV PUSH1 0xFF AND SWAP1 POP SWAP1 JUMP JUMPDEST PUSH1 0x2 PUSH1 0x0 DUP1 PUSH2 0x100 EXP DUP2 SLOAD DUP2 PUSH1 0xFF MUL NOT AND SWAP1 DUP4 PUSH1 0x2 DUP2 GT ISZERO PUSH2 0xB3 JUMPI PUSH2 0xB2 PUSH2 0xE6 JUMP JUMPDEST JUMPDEST MUL OR SWAP1 SSTORE POP JUMP JUMPDEST PUSH1 0x0 DUP1 PUSH1 0x0 PUSH2 0x100 EXP DUP2 SLOAD DUP2 PUSH1 0xFF MUL NOT AND SWAP1 DUP4 PUSH1 0x2 DUP2 GT ISZERO PUSH2 0xDF JUMPI PUSH2 0xDE PUSH2 0xE6 JUMP JUMPDEST JUMPDEST MUL OR SWAP1 SSTORE POP JUMP JUMPDEST PUSH32 0x4E487B7100000000000000000000000000000000000000000000000000000000 PUSH1 0x0 MSTORE PUSH1 0x21 PUSH1 0x4 MSTORE PUSH1 0x24 PUSH1 0x0 REVERT JUMPDEST PUSH1 0x3 DUP2 LT PUSH2 0x126 JUMPI PUSH2 0x125 PUSH2 0xE6 JUMP JUMPDEST JUMPDEST POP JUMP JUMPDEST PUSH1 0x0 DUP2 SWAP1 POP PUSH2 0x137 DUP3 PUSH2 0x115 JUMP JUMPDEST SWAP2 SWAP1 POP JUMP JUMPDEST PUSH1 0x0 PUSH2 0x147 DUP3 PUSH2 0x129 JUMP JUMPDEST SWAP1 POP SWAP2 SWAP1 POP JUMP JUMPDEST PUSH2 0x157 DUP2 PUSH2 0x13C JUMP JUMPDEST DUP3 MSTORE POP POP JUMP JUMPDEST PUSH1 0x0 PUSH1 0x20 DUP3 ADD SWAP1 POP PUSH2 0x172 PUSH1 0x0 DUP4 ADD DUP5 PUSH2 0x14E JUMP JUMPDEST SWAP3 SWAP2 POP POP JUMP INVALID LOG2 PUSH5 0x6970667358 0x22 SLT KECCAK256 PUSH17 0x307FAB2AD0B20ABC4F3EA5B6A974CDB9C8 SIGNEXTEND 0xED 0x4C BYTE 0xF8 0x49 PUSH18 0x278520541C512C64736F6C63430008120033 "
				},
				"gasEstimates": {
					"creation": {
						"codeDepositCost": "86000",
						"executionCost": "135",
						"totalCost": "86135"
					},
					"external": {
						"getChoice()": "2546",
						"setLarge()": "24431",
						"setSmall()": "24453"
					}
				},
				"methodIdentifiers": {
					"getChoice()": "67cb61b6",
					"setLarge()": "694ebe4f",
					"setSmall()": "91ff2c86"
				}
			},
			"storageLayout": {
				"storage": [
					{
						"astId": 8,
						"contract": "enum.sol:enum11",
						"label": "choice",
						"offset": 0,
						"slot": "0",
						"type": "t_enum(FreshJuice)5"
					}
				],
				"types": {
					"t_enum(FreshJuice)5": {
						"encoding": "inplace",
						"label": "enum enum11.FreshJuice",
						"numberOfBytes": "1"
					}
				}
			},
			"userdoc": {
				"kind": "user",
				"methods": {},
				"version": 1
			}
		}
	}
}